{
  "_format": "hh-sol-artifact-1",
  "contractName": "MockWhitelist",
  "sourceName": "contracts/mocks/MockWhitelist.sol",
  "abi": [
    {
      "inputs": [
        {
          "internalType": "address",
          "name": "",
          "type": "address"
        }
      ],
      "name": "isWhitelistedOtoken",
      "outputs": [
        {
          "internalType": "bool",
          "name": "",
          "type": "bool"
        }
      ],
      "stateMutability": "view",
      "type": "function"
    },
    {
      "inputs": [
        {
          "internalType": "bool",
          "name": "_isWhitelisted",
          "type": "bool"
        }
      ],
      "name": "setIsWhitelisted",
      "outputs": [],
      "stateMutability": "nonpayable",
      "type": "function"
    }
  ],
  "bytecode": "0x608060405260016000806101000a81548160ff02191690831515021790555034801561002a57600080fd5b506101258061003a6000396000f3fe6080604052348015600f57600080fd5b506004361060325760003560e01c806311946b981460375780633bd646f114608e575b600080fd5b607660048036036020811015604b57600080fd5b81019080803573ffffffffffffffffffffffffffffffffffffffff16906020019092919050505060bb565b60405180821515815260200191505060405180910390f35b60b96004803603602081101560a257600080fd5b8101908080351515906020019092919050505060d3565b005b60008060009054906101000a900460ff169050919050565b806000806101000a81548160ff0219169083151502179055505056fea2646970667358221220f702b35ff6ff12e62648f137531ed14d59bc2a04119897e70cc4f66509a396d064736f6c63430007060033",
  "linkReferences": {},
  "deployedLinkReferences": {}
}