{
  "_format": "hh-sol-artifact-1",
  "contractName": "MockOracle",
  "sourceName": "contracts/mocks/MockOracle.sol",
  "abi": [
    {
      "inputs": [],
      "name": "latestRoundData",
      "outputs": [
        {
          "internalType": "uint80",
          "name": "",
          "type": "uint80"
        },
        {
          "internalType": "int256",
          "name": "",
          "type": "int256"
        },
        {
          "internalType": "uint256",
          "name": "",
          "type": "uint256"
        },
        {
          "internalType": "uint256",
          "name": "",
          "type": "uint256"
        },
        {
          "internalType": "uint80",
          "name": "",
          "type": "uint80"
        }
      ],
      "stateMutability": "view",
      "type": "function"
    },
    {
      "inputs": [
        {
          "internalType": "uint80",
          "name": "_roundId",
          "type": "uint80"
        },
        {
          "internalType": "int256",
          "name": "_answer",
          "type": "int256"
        },
        {
          "internalType": "uint256",
          "name": "_startedAt",
          "type": "uint256"
        },
        {
          "internalType": "uint256",
          "name": "_updatedAt",
          "type": "uint256"
        },
        {
          "internalType": "uint80",
          "name": "_answeredInRound",
          "type": "uint80"
        }
      ],
      "name": "setData",
      "outputs": [],
      "stateMutability": "nonpayable",
      "type": "function"
    }
  ],
  "bytecode": "0x608060405234801561001057600080fd5b506101f9806100206000396000f3fe608060405234801561001057600080fd5b50600436106100365760003560e01c80636444bd161461003b578063feaf968c146100a9575b600080fd5b6100a7600480360360a081101561005157600080fd5b81019080803569ffffffffffffffffffff169060200190929190803590602001909291908035906020019092919080359060200190929190803569ffffffffffffffffffff1690602001909291905050506100fb565b005b6100b1610170565b604051808669ffffffffffffffffffff1681526020018581526020018481526020018381526020018269ffffffffffffffffffff1681526020019550505050505060405180910390f35b846000806101000a81548169ffffffffffffffffffff021916908369ffffffffffffffffffff16021790555083600181905550826002819055508160038190555080600460006101000a81548169ffffffffffffffffffff021916908369ffffffffffffffffffff1602179055505050505050565b60008060008060008060009054906101000a900469ffffffffffffffffffff16600154600254600354600460009054906101000a900469ffffffffffffffffffff1694509450945094509450909192939456fea26469706673582212201064042ded1a899989cacc5a8a72c0ab267ee330c4807a47d61b2ea1a7f6ee6764736f6c63430007060033",
  "linkReferences": {},
  "deployedLinkReferences": {}
}