{
  "_format": "hh-sol-artifact-1",
  "contractName": "ShortOToken",
  "sourceName": "contracts/example-actions/ShortOToken.sol",
  "abi": [
    {
      "inputs": [
        {
          "internalType": "address",
          "name": "_vault",
          "type": "address"
        },
        {
          "internalType": "address",
          "name": "_asset",
          "type": "address"
        },
        {
          "internalType": "address",
          "name": "_airswap",
          "type": "address"
        },
        {
          "internalType": "address",
          "name": "_easyAuction",
          "type": "address"
        },
        {
          "internalType": "address",
          "name": "_opynWhitelist",
          "type": "address"
        },
        {
          "internalType": "address",
          "name": "_controller",
          "type": "address"
        },
        {
          "internalType": "uint256",
          "name": "_vaultType",
          "type": "uint256"
        }
      ],
      "stateMutability": "nonpayable",
      "type": "constructor"
    },
    {
      "anonymous": false,
      "inputs": [
        {
          "indexed": true,
          "internalType": "address",
          "name": "previousOwner",
          "type": "address"
        },
        {
          "indexed": true,
          "internalType": "address",
          "name": "newOwner",
          "type": "address"
        }
      ],
      "name": "OwnershipTransferred",
      "type": "event"
    },
    {
      "inputs": [],
      "name": "BASE",
      "outputs": [
        {
          "internalType": "uint256",
          "name": "",
          "type": "uint256"
        }
      ],
      "stateMutability": "view",
      "type": "function"
    },
    {
      "inputs": [],
      "name": "MIN_COMMIT_PERIOD",
      "outputs": [
        {
          "internalType": "uint256",
          "name": "",
          "type": "uint256"
        }
      ],
      "stateMutability": "view",
      "type": "function"
    },
    {
      "inputs": [],
      "name": "MIN_PROFITS",
      "outputs": [
        {
          "internalType": "uint256",
          "name": "",
          "type": "uint256"
        }
      ],
      "stateMutability": "view",
      "type": "function"
    },
    {
      "inputs": [],
      "name": "airswap",
      "outputs": [
        {
          "internalType": "contract ISwap",
          "name": "",
          "type": "address"
        }
      ],
      "stateMutability": "view",
      "type": "function"
    },
    {
      "inputs": [],
      "name": "asset",
      "outputs": [
        {
          "internalType": "address",
          "name": "",
          "type": "address"
        }
      ],
      "stateMutability": "view",
      "type": "function"
    },
    {
      "inputs": [],
      "name": "auction",
      "outputs": [
        {
          "internalType": "contract IEasyAuction",
          "name": "",
          "type": "address"
        }
      ],
      "stateMutability": "view",
      "type": "function"
    },
    {
      "inputs": [],
      "name": "canClosePosition",
      "outputs": [
        {
          "internalType": "bool",
          "name": "",
          "type": "bool"
        }
      ],
      "stateMutability": "view",
      "type": "function"
    },
    {
      "inputs": [],
      "name": "closePosition",
      "outputs": [],
      "stateMutability": "nonpayable",
      "type": "function"
    },
    {
      "inputs": [
        {
          "internalType": "address",
          "name": "_nextOToken",
          "type": "address"
        }
      ],
      "name": "commitOToken",
      "outputs": [],
      "stateMutability": "nonpayable",
      "type": "function"
    },
    {
      "inputs": [],
      "name": "commitStateStart",
      "outputs": [
        {
          "internalType": "uint256",
          "name": "",
          "type": "uint256"
        }
      ],
      "stateMutability": "view",
      "type": "function"
    },
    {
      "inputs": [],
      "name": "currentValue",
      "outputs": [
        {
          "internalType": "uint256",
          "name": "",
          "type": "uint256"
        }
      ],
      "stateMutability": "view",
      "type": "function"
    },
    {
      "inputs": [],
      "name": "lockedAsset",
      "outputs": [
        {
          "internalType": "uint256",
          "name": "",
          "type": "uint256"
        }
      ],
      "stateMutability": "view",
      "type": "function"
    },
    {
      "inputs": [
        {
          "internalType": "uint256",
          "name": "_collateralAmount",
          "type": "uint256"
        },
        {
          "internalType": "uint256",
          "name": "_otokenToMint",
          "type": "uint256"
        },
        {
          "internalType": "uint96",
          "name": "_otokenToSell",
          "type": "uint96"
        },
        {
          "internalType": "uint256",
          "name": "_orderCancellationEndDate",
          "type": "uint256"
        },
        {
          "internalType": "uint256",
          "name": "_auctionEndDate",
          "type": "uint256"
        },
        {
          "internalType": "uint96",
          "name": "_minPremium",
          "type": "uint96"
        },
        {
          "internalType": "uint256",
          "name": "_minimumBiddingAmountPerOrder",
          "type": "uint256"
        },
        {
          "internalType": "uint256",
          "name": "_minFundingThreshold",
          "type": "uint256"
        },
        {
          "internalType": "bool",
          "name": "_isAtomicClosureAllowed",
          "type": "bool"
        }
      ],
      "name": "mintAndStartAuction",
      "outputs": [],
      "stateMutability": "nonpayable",
      "type": "function"
    },
    {
      "inputs": [
        {
          "internalType": "uint256",
          "name": "_collateralAmount",
          "type": "uint256"
        },
        {
          "internalType": "uint256",
          "name": "_otokenAmount",
          "type": "uint256"
        },
        {
          "components": [
            {
              "internalType": "uint256",
              "name": "nonce",
              "type": "uint256"
            },
            {
              "internalType": "uint256",
              "name": "expiry",
              "type": "uint256"
            },
            {
              "components": [
                {
                  "internalType": "bytes4",
                  "name": "kind",
                  "type": "bytes4"
                },
                {
                  "internalType": "address",
                  "name": "wallet",
                  "type": "address"
                },
                {
                  "internalType": "address",
                  "name": "token",
                  "type": "address"
                },
                {
                  "internalType": "uint256",
                  "name": "amount",
                  "type": "uint256"
                },
                {
                  "internalType": "uint256",
                  "name": "id",
                  "type": "uint256"
                }
              ],
              "internalType": "struct SwapTypes.Party",
              "name": "signer",
              "type": "tuple"
            },
            {
              "components": [
                {
                  "internalType": "bytes4",
                  "name": "kind",
                  "type": "bytes4"
                },
                {
                  "internalType": "address",
                  "name": "wallet",
                  "type": "address"
                },
                {
                  "internalType": "address",
                  "name": "token",
                  "type": "address"
                },
                {
                  "internalType": "uint256",
                  "name": "amount",
                  "type": "uint256"
                },
                {
                  "internalType": "uint256",
                  "name": "id",
                  "type": "uint256"
                }
              ],
              "internalType": "struct SwapTypes.Party",
              "name": "sender",
              "type": "tuple"
            },
            {
              "components": [
                {
                  "internalType": "bytes4",
                  "name": "kind",
                  "type": "bytes4"
                },
                {
                  "internalType": "address",
                  "name": "wallet",
                  "type": "address"
                },
                {
                  "internalType": "address",
                  "name": "token",
                  "type": "address"
                },
                {
                  "internalType": "uint256",
                  "name": "amount",
                  "type": "uint256"
                },
                {
                  "internalType": "uint256",
                  "name": "id",
                  "type": "uint256"
                }
              ],
              "internalType": "struct SwapTypes.Party",
              "name": "affiliate",
              "type": "tuple"
            },
            {
              "components": [
                {
                  "internalType": "address",
                  "name": "signatory",
                  "type": "address"
                },
                {
                  "internalType": "address",
                  "name": "validator",
                  "type": "address"
                },
                {
                  "internalType": "bytes1",
                  "name": "version",
                  "type": "bytes1"
                },
                {
                  "internalType": "uint8",
                  "name": "v",
                  "type": "uint8"
                },
                {
                  "internalType": "bytes32",
                  "name": "r",
                  "type": "bytes32"
                },
                {
                  "internalType": "bytes32",
                  "name": "s",
                  "type": "bytes32"
                }
              ],
              "internalType": "struct SwapTypes.Signature",
              "name": "signature",
              "type": "tuple"
            }
          ],
          "internalType": "struct SwapTypes.Order",
          "name": "_order",
          "type": "tuple"
        }
      ],
      "name": "mintAndTradeAirSwapOTC",
      "outputs": [],
      "stateMutability": "nonpayable",
      "type": "function"
    },
    {
      "inputs": [],
      "name": "nextOToken",
      "outputs": [
        {
          "internalType": "address",
          "name": "",
          "type": "address"
        }
      ],
      "stateMutability": "view",
      "type": "function"
    },
    {
      "inputs": [],
      "name": "opynWhitelist",
      "outputs": [
        {
          "internalType": "contract IWhitelist",
          "name": "",
          "type": "address"
        }
      ],
      "stateMutability": "view",
      "type": "function"
    },
    {
      "inputs": [],
      "name": "oracle",
      "outputs": [
        {
          "internalType": "contract IOracle",
          "name": "",
          "type": "address"
        }
      ],
      "stateMutability": "view",
      "type": "function"
    },
    {
      "inputs": [],
      "name": "otoken",
      "outputs": [
        {
          "internalType": "address",
          "name": "",
          "type": "address"
        }
      ],
      "stateMutability": "view",
      "type": "function"
    },
    {
      "inputs": [],
      "name": "owner",
      "outputs": [
        {
          "internalType": "address",
          "name": "",
          "type": "address"
        }
      ],
      "stateMutability": "view",
      "type": "function"
    },
    {
      "inputs": [],
      "name": "renounceOwnership",
      "outputs": [],
      "stateMutability": "nonpayable",
      "type": "function"
    },
    {
      "inputs": [],
      "name": "rolloverPosition",
      "outputs": [],
      "stateMutability": "nonpayable",
      "type": "function"
    },
    {
      "inputs": [],
      "name": "rolloverTime",
      "outputs": [
        {
          "internalType": "uint256",
          "name": "",
          "type": "uint256"
        }
      ],
      "stateMutability": "view",
      "type": "function"
    },
    {
      "inputs": [],
      "name": "state",
      "outputs": [
        {
          "internalType": "enum RollOverBase.ActionState",
          "name": "",
          "type": "uint8"
        }
      ],
      "stateMutability": "view",
      "type": "function"
    },
    {
      "inputs": [
        {
          "internalType": "address",
          "name": "newOwner",
          "type": "address"
        }
      ],
      "name": "transferOwnership",
      "outputs": [],
      "stateMutability": "nonpayable",
      "type": "function"
    },
    {
      "inputs": [],
      "name": "vault",
      "outputs": [
        {
          "internalType": "address",
          "name": "",
          "type": "address"
        }
      ],
      "stateMutability": "view",
      "type": "function"
    }
  ],
  "bytecode": "0x60c06040523480156200001157600080fd5b506040516200545d3803806200545d8339818101604052810190620000379190620011fa565b8673ffffffffffffffffffffffffffffffffffffffff1660808173ffffffffffffffffffffffffffffffffffffffff1660601b815250508573ffffffffffffffffffffffffffffffffffffffff1660a08173ffffffffffffffffffffffffffffffffffffffff1660601b81525050620000f7877fffffffffffffffffffffffffffffffffffffffffffffffffffffffffffffffff8873ffffffffffffffffffffffffffffffffffffffff166200034860201b62001324179092919060201c565b62000108826200051b60201b60201c565b6000606b60009054906101000a900473ffffffffffffffffffffffffffffffffffffffff1673ffffffffffffffffffffffffffffffffffffffff166316f0115b6040518163ffffffff1660e01b815260040160206040518083038186803b1580156200017357600080fd5b505afa15801562000188573d6000803e3d6000fd5b505050506040513d601f19601f82011682018060405250810190620001ae9190620011ce565b9050606b60009054906101000a900473ffffffffffffffffffffffffffffffffffffffff1673ffffffffffffffffffffffffffffffffffffffff16637dc0d1d06040518163ffffffff1660e01b815260040160206040518083038186803b1580156200021957600080fd5b505afa1580156200022e573d6000803e3d6000fd5b505050506040513d601f19601f82011682018060405250810190620002549190620011ce565b606e60006101000a81548173ffffffffffffffffffffffffffffffffffffffff021916908373ffffffffffffffffffffffffffffffffffffffff160217905550620002e6817fffffffffffffffffffffffffffffffffffffffffffffffffffffffffffffffff8973ffffffffffffffffffffffffffffffffffffffff166200034860201b62001324179092919060201c565b620002f7856200055f60201b60201c565b62000308866200069460201b60201c565b6200031984620006d860201b60201c565b620003296200074160201b60201c565b6200033a826200086d60201b60201c565b50505050505050506200169c565b60008114806200041a575060008373ffffffffffffffffffffffffffffffffffffffff1663dd62ed3e30856040518363ffffffff1660e01b8152600401808373ffffffffffffffffffffffffffffffffffffffff1681526020018273ffffffffffffffffffffffffffffffffffffffff1681526020019250505060206040518083038186803b158015620003db57600080fd5b505afa158015620003f0573d6000803e3d6000fd5b505050506040513d60208110156200040757600080fd5b8101908080519060200190929190505050145b62000471576040517f08c379a0000000000000000000000000000000000000000000000000000000008152600401808060200182810382526036815260200180620054276036913960400191505060405180910390fd5b620005168363095ea7b360e01b8484604051602401808373ffffffffffffffffffffffffffffffffffffffff16815260200182815260200192505050604051602081830303815290604052907bffffffffffffffffffffffffffffffffffffffffffffffffffffffff19166020820180517bffffffffffffffffffffffffffffffffffffffffffffffffffffffff838183161783525050505062000a3660201b60201c565b505050565b80606b60006101000a81548173ffffffffffffffffffffffffffffffffffffffff021916908373ffffffffffffffffffffffffffffffffffffffff16021790555050565b600073ffffffffffffffffffffffffffffffffffffffff168173ffffffffffffffffffffffffffffffffffffffff1614156200059b5762000691565b80606560006101000a81548173ffffffffffffffffffffffffffffffffffffffff021916908373ffffffffffffffffffffffffffffffffffffffff160217905550606560009054906101000a900473ffffffffffffffffffffffffffffffffffffffff1673ffffffffffffffffffffffffffffffffffffffff16632199d5cd306040518263ffffffff1660e01b8152600401620006399190620014c0565b602060405180830381600087803b1580156200065457600080fd5b505af115801562000669573d6000803e3d6000fd5b505050506040513d601f19601f820116820180604052508101906200068f9190620012a7565b505b50565b80606660006101000a81548173ffffffffffffffffffffffffffffffffffffffff021916908373ffffffffffffffffffffffffffffffffffffffff16021790555050565b6000606a60006101000a81548160ff02191690836002811115620006f857fe5b021790555080606a60016101000a81548173ffffffffffffffffffffffffffffffffffffffff021916908373ffffffffffffffffffffffffffffffffffffffff16021790555050565b600060019054906101000a900460ff16806200076957506200076862000b3060201b60201c565b5b8062000780575060008054906101000a900460ff16155b620007d7576040517f08c379a000000000000000000000000000000000000000000000000000000000815260040180806020018281038252602e815260200180620053cf602e913960400191505060405180910390fd5b60008060019054906101000a900460ff16159050801562000828576001600060016101000a81548160ff02191690831515021790555060016000806101000a81548160ff0219169083151502179055505b6200083862000b4e60201b60201c565b6200084862000c5a60201b60201c565b80156200086a5760008060016101000a81548160ff0219169083151502179055505b50565b6060600082146200089d57816040516020016200088b919062001501565b60405160208183030381529060405290505b6000600167ffffffffffffffff81118015620008b857600080fd5b50604051908082528060200260200182016040528015620008f657816020015b620008e2620010f6565b815260200190600190039081620008d85790505b509050604051806101000160405280600060098111156200091357fe5b81526020013073ffffffffffffffffffffffffffffffffffffffff168152602001600073ffffffffffffffffffffffffffffffffffffffff168152602001600073ffffffffffffffffffffffffffffffffffffffff16815260200160018152602001600081526020016000815260200183815250816000815181106200099557fe5b6020026020010181905250606b60009054906101000a900473ffffffffffffffffffffffffffffffffffffffff1673ffffffffffffffffffffffffffffffffffffffff1663b617f0c6826040518263ffffffff1660e01b8152600401620009fd9190620014dd565b600060405180830381600087803b15801562000a1857600080fd5b505af115801562000a2d573d6000803e3d6000fd5b50505050505050565b600062000a9f826040518060400160405280602081526020017f5361666545524332303a206c6f772d6c6576656c2063616c6c206661696c65648152508573ffffffffffffffffffffffffffffffffffffffff1662000e1760201b620014e9179092919060201c565b905060008151111562000b2b5780806020019051602081101562000ac257600080fd5b810190808051906020019092919050505062000b2a576040517f08c379a000000000000000000000000000000000000000000000000000000000815260040180806020018281038252602a815260200180620053fd602a913960400191505060405180910390fd5b5b505050565b600062000b483062000e3760201b620015011760201c565b15905090565b600060019054906101000a900460ff168062000b76575062000b7562000b3060201b60201c565b5b8062000b8d575060008054906101000a900460ff16155b62000be4576040517f08c379a000000000000000000000000000000000000000000000000000000000815260040180806020018281038252602e815260200180620053cf602e913960400191505060405180910390fd5b60008060019054906101000a900460ff16159050801562000c35576001600060016101000a81548160ff02191690831515021790555060016000806101000a81548160ff0219169083151502179055505b801562000c575760008060016101000a81548160ff0219169083151502179055505b50565b600060019054906101000a900460ff168062000c82575062000c8162000b3060201b60201c565b5b8062000c99575060008054906101000a900460ff16155b62000cf0576040517f08c379a000000000000000000000000000000000000000000000000000000000815260040180806020018281038252602e815260200180620053cf602e913960400191505060405180910390fd5b60008060019054906101000a900460ff16159050801562000d41576001600060016101000a81548160ff02191690831515021790555060016000806101000a81548160ff0219169083151502179055505b600062000d5362000e4a60201b60201c565b905080603360006101000a81548173ffffffffffffffffffffffffffffffffffffffff021916908373ffffffffffffffffffffffffffffffffffffffff1602179055508073ffffffffffffffffffffffffffffffffffffffff16600073ffffffffffffffffffffffffffffffffffffffff167f8be0079c531659141344cd1fd0a4f28419497f9722a3daafe3b4186f6b6457e060405160405180910390a350801562000e145760008060016101000a81548160ff0219169083151502179055505b50565b606062000e2e848460008562000e5260201b60201c565b90509392505050565b600080823b905060008111915050919050565b600033905090565b60608247101562000eaf576040517f08c379a0000000000000000000000000000000000000000000000000000000008152600401808060200182810382526026815260200180620053a96026913960400191505060405180910390fd5b62000ec0856200101160201b60201c565b62000f33576040517f08c379a000000000000000000000000000000000000000000000000000000000815260040180806020018281038252601d8152602001807f416464726573733a2063616c6c20746f206e6f6e2d636f6e747261637400000081525060200191505060405180910390fd5b6000808673ffffffffffffffffffffffffffffffffffffffff1685876040518082805190602001908083835b6020831062000f84578051825260208201915060208101905060208303925062000f5f565b6001836020036101000a03801982511681845116808217855250505050505090500191505060006040518083038185875af1925050503d806000811462000fe8576040519150601f19603f3d011682016040523d82523d6000602084013e62000fed565b606091505b5091509150620010058282866200102460201b60201c565b92505050949350505050565b600080823b905060008111915050919050565b606083156200103657829050620010ef565b6000835111156200104a5782518084602001fd5b816040517f08c379a00000000000000000000000000000000000000000000000000000000081526004018080602001828103825283818151815260200191508051906020019080838360005b83811015620010b357808201518184015260208101905062001096565b50505050905090810190601f168015620010e15780820380516001836020036101000a031916815260200191505b509250505060405180910390fd5b9392505050565b604051806101000160405280600060098111156200111057fe5b8152602001600073ffffffffffffffffffffffffffffffffffffffff168152602001600073ffffffffffffffffffffffffffffffffffffffff168152602001600073ffffffffffffffffffffffffffffffffffffffff168152602001600081526020016000815260200160008152602001606081525090565b6000815190506200119a816200164e565b92915050565b600081519050620011b18162001668565b92915050565b600081519050620011c88162001682565b92915050565b600060208284031215620011e157600080fd5b6000620011f18482850162001189565b91505092915050565b600080600080600080600060e0888a0312156200121657600080fd5b6000620012268a828b0162001189565b9750506020620012398a828b0162001189565b96505060406200124c8a828b0162001189565b95505060606200125f8a828b0162001189565b9450506080620012728a828b0162001189565b93505060a0620012858a828b0162001189565b92505060c0620012988a828b01620011a0565b91505092959891949750929550565b600060208284031215620012ba57600080fd5b6000620012ca84828501620011b7565b91505092915050565b6000620012e18383620013de565b905092915050565b620012f48162001573565b82525050565b620013058162001573565b82525050565b600062001318826200152e565b62001324818562001551565b93508360208202850162001338856200151e565b8060005b858110156200137a5784840389528151620013588582620012d3565b9450620013658362001544565b925060208a019950506001810190506200133c565b50829750879550505050505092915050565b6000620013998262001539565b620013a5818562001562565b9350620013b7818560208601620015ee565b620013c28162001626565b840191505092915050565b620013d881620015da565b82525050565b600061010083016000830151620013f96000860182620013cd565b5060208301516200140e6020860182620012e9565b506040830151620014236040860182620012e9565b506060830151620014386060860182620012e9565b5060808301516200144d60808601826200149e565b5060a08301516200146260a08601826200149e565b5060c08301516200147760c08601826200149e565b5060e083015184820360e08601526200149182826200138c565b9150508091505092915050565b620014a981620015bc565b82525050565b620014ba81620015bc565b82525050565b6000602082019050620014d76000830184620012fa565b92915050565b60006020820190508181036000830152620014f981846200130b565b905092915050565b6000602082019050620015186000830184620014af565b92915050565b6000819050602082019050919050565b600081519050919050565b600081519050919050565b6000602082019050919050565b600082825260208201905092915050565b600082825260208201905092915050565b600062001580826200159c565b9050919050565b6000819050620015978262001637565b919050565b600073ffffffffffffffffffffffffffffffffffffffff82169050919050565b6000819050919050565b600067ffffffffffffffff82169050919050565b6000620015e78262001587565b9050919050565b60005b838110156200160e578082015181840152602081019050620015f1565b838111156200161e576000848401525b50505050565bfe5b6000601f19601f8301169050919050565b600a81106200164b576200164a62001624565b5b50565b620016598162001573565b81146200166557600080fd5b50565b6200167381620015bc565b81146200167f57600080fd5b50565b6200168d81620015c6565b81146200169957600080fd5b50565b60805160601c60a05160601c613cbb620016ee6000398061045c52806106aa52806107d0528061082c5280610fb9528061102b5280612774525080610d73528061125e52806112825250613cbb6000f3fe608060405234801561001057600080fd5b50600436106101735760003560e01c80638da5cb5b116100de578063c393d0e311610097578063f2fde38b11610071578063f2fde38b146103c0578063fbfa77cf146103dc578063fcbbccb0146103fa578063fd3a3f911461040457610173565b8063c393d0e31461037c578063eb9d75b514610386578063ec342ad0146103a257610173565b80638da5cb5b146102ca5780639fc44afe146102e8578063ab1bfc8514610306578063ae8ecf5814610324578063b8c448a914610342578063c19d93fb1461035e57610173565b806360bea96a1161013057806360bea96a1461022c578063698996f8146102485780636d992be214610266578063715018a6146102845780637d9f6db51461028e5780637dc0d1d0146102ac57610173565b80630d9c99af146101785780631aec62d0146101965780631e83ab69146101b457806327038f3d146101d257806338d52e0f146101f05780633a91e1a41461020e575b600080fd5b610180610422565b60405161018d9190613814565b60405180910390f35b61019e610428565b6040516101ab9190613814565b60405180910390f35b6101bc61042e565b6040516101c99190613814565b60405180910390f35b6101da610434565b6040516101e79190613622565b60405180910390f35b6101f861045a565b6040516102059190613477565b60405180910390f35b61021661047e565b6040516102239190613814565b60405180910390f35b61024660048036038101906102419190612c35565b610484565b005b610250610827565b60405161025d9190613814565b60405180910390f35b61026e6108f0565b60405161027b9190613477565b60405180910390f35b61028c610916565b005b610296610a86565b6040516102a391906135d1565b60405180910390f35b6102b4610aac565b6040516102c191906135ec565b60405180910390f35b6102d2610ad2565b6040516102df9190613477565b60405180910390f35b6102f0610afc565b6040516102fd9190613607565b60405180910390f35b61030e610b22565b60405161031b91906135b6565b60405180910390f35b61032c610ba9565b6040516103399190613477565b60405180910390f35b61035c60048036038101906103579190612bba565b610bcf565b005b610366610d5e565b604051610373919061363d565b60405180910390f35b610384610d71565b005b6103a0600480360381019061039b9190612c85565b610e6e565b005b6103aa611061565b6040516103b79190613814565b60405180910390f35b6103da60048036038101906103d59190612bba565b611067565b005b6103e461125c565b6040516103f19190613477565b60405180910390f35b610402611280565b005b61040c61131f565b6040516104199190613814565b60405180910390f35b606d5481565b60695481565b606c5481565b606a60019054906101000a900473ffffffffffffffffffffffffffffffffffffffff1681565b7f000000000000000000000000000000000000000000000000000000000000000081565b61fd2081565b61048c611514565b73ffffffffffffffffffffffffffffffffffffffff166104aa610ad2565b73ffffffffffffffffffffffffffffffffffffffff1614610533576040517f08c379a00000000000000000000000000000000000000000000000000000000081526004018080602001828103825260208152602001807f4f776e61626c653a2063616c6c6572206973206e6f7420746865206f776e657281525060200191505060405180910390fd5b60028081111561053f57fe5b606a60009054906101000a900460ff16600281111561055a57fe5b1461059a576040517f08c379a000000000000000000000000000000000000000000000000000000000815260040161059190613678565b60405180910390fd5b3073ffffffffffffffffffffffffffffffffffffffff1681606001516020015173ffffffffffffffffffffffffffffffffffffffff1614610610576040517f08c379a000000000000000000000000000000000000000000000000000000000815260040161060790613658565b60405180910390fd5b606760009054906101000a900473ffffffffffffffffffffffffffffffffffffffff1673ffffffffffffffffffffffffffffffffffffffff1681606001516040015173ffffffffffffffffffffffffffffffffffffffff16146106a8576040517f08c379a000000000000000000000000000000000000000000000000000000000815260040161069f90613698565b60405180910390fd5b7f000000000000000000000000000000000000000000000000000000000000000073ffffffffffffffffffffffffffffffffffffffff1681604001516040015173ffffffffffffffffffffffffffffffffffffffff161461073e576040517f08c379a000000000000000000000000000000000000000000000000000000000815260040161073590613778565b60405180910390fd5b80604001516060015161076f61271061076160648761151c90919063ffffffff16565b6115a290919063ffffffff16565b11156107b0576040517f08c379a00000000000000000000000000000000000000000000000000000000081526004016107a7906137b8565b60405180910390fd5b6107c583606c5461162b90919063ffffffff16565b606c819055506108197f000000000000000000000000000000000000000000000000000000000000000084606760009054906101000a900473ffffffffffffffffffffffffffffffffffffffff16856116b3565b61082281611900565b505050565b6000807f000000000000000000000000000000000000000000000000000000000000000073ffffffffffffffffffffffffffffffffffffffff166370a08231306040518263ffffffff1660e01b81526004016108839190613477565b60206040518083038186803b15801561089b57600080fd5b505afa1580156108af573d6000803e3d6000fd5b505050506040513d601f19601f820116820180604052508101906108d39190612c0c565b90506108ea606c548261162b90919063ffffffff16565b91505090565b606860009054906101000a900473ffffffffffffffffffffffffffffffffffffffff1681565b61091e611514565b73ffffffffffffffffffffffffffffffffffffffff1661093c610ad2565b73ffffffffffffffffffffffffffffffffffffffff16146109c5576040517f08c379a00000000000000000000000000000000000000000000000000000000081526004018080602001828103825260208152602001807f4f776e61626c653a2063616c6c6572206973206e6f7420746865206f776e657281525060200191505060405180910390fd5b600073ffffffffffffffffffffffffffffffffffffffff16603360009054906101000a900473ffffffffffffffffffffffffffffffffffffffff1673ffffffffffffffffffffffffffffffffffffffff167f8be0079c531659141344cd1fd0a4f28419497f9722a3daafe3b4186f6b6457e060405160405180910390a36000603360006101000a81548173ffffffffffffffffffffffffffffffffffffffff021916908373ffffffffffffffffffffffffffffffffffffffff160217905550565b606560009054906101000a900473ffffffffffffffffffffffffffffffffffffffff1681565b606e60009054906101000a900473ffffffffffffffffffffffffffffffffffffffff1681565b6000603360009054906101000a900473ffffffffffffffffffffffffffffffffffffffff16905090565b606660009054906101000a900473ffffffffffffffffffffffffffffffffffffffff1681565b60008073ffffffffffffffffffffffffffffffffffffffff16606760009054906101000a900473ffffffffffffffffffffffffffffffffffffffff1673ffffffffffffffffffffffffffffffffffffffff1614158015610b8557506000606c5414155b15610b9957610b92611a50565b9050610ba6565b62015180606d5401421190505b90565b606760009054906101000a900473ffffffffffffffffffffffffffffffffffffffff1681565b610bd7611514565b73ffffffffffffffffffffffffffffffffffffffff16610bf5610ad2565b73ffffffffffffffffffffffffffffffffffffffff1614610c7e576040517f08c379a00000000000000000000000000000000000000000000000000000000081526004018080602001828103825260208152602001807f4f776e61626c653a2063616c6c6572206973206e6f7420746865206f776e657281525060200191505060405180910390fd5b600280811115610c8a57fe5b606a60009054906101000a900460ff166002811115610ca557fe5b1415610ce6576040517f08c379a0000000000000000000000000000000000000000000000000000000008152600401610cdd90613738565b60405180910390fd5b610cef81611b94565b80606860006101000a81548173ffffffffffffffffffffffffffffffffffffffff021916908373ffffffffffffffffffffffffffffffffffffffff1602179055506001606a60006101000a81548160ff02191690836002811115610d4f57fe5b02179055504260698190555050565b606a60009054906101000a900460ff1681565b7f000000000000000000000000000000000000000000000000000000000000000073ffffffffffffffffffffffffffffffffffffffff163373ffffffffffffffffffffffffffffffffffffffff1614610dff576040517f08c379a0000000000000000000000000000000000000000000000000000000008152600401610df6906136f8565b60405180910390fd5b610e07610b22565b610e46576040517f08c379a0000000000000000000000000000000000000000000000000000000008152600401610e3d90613718565b60405180910390fd5b610e4e611a50565b15610e5c57610e5b611c8a565b5b610e64611e24565b6000606c81905550565b610e76611514565b73ffffffffffffffffffffffffffffffffffffffff16610e94610ad2565b73ffffffffffffffffffffffffffffffffffffffff1614610f1d576040517f08c379a00000000000000000000000000000000000000000000000000000000081526004018080602001828103825260208152602001807f4f776e61626c653a2063616c6c6572206973206e6f7420746865206f776e657281525060200191505060405180910390fd5b600280811115610f2957fe5b606a60009054906101000a900460ff166002811115610f4457fe5b14610f84576040517f08c379a0000000000000000000000000000000000000000000000000000000008152600401610f7b90613678565b60405180910390fd5b600089118015610f945750600088115b1561100357610fae89606c5461162b90919063ffffffff16565b606c819055506110027f00000000000000000000000000000000000000000000000000000000000000008a606760009054906101000a900473ffffffffffffffffffffffffffffffffffffffff168b6116b3565b5b611056606760009054906101000a900473ffffffffffffffffffffffffffffffffffffffff167f000000000000000000000000000000000000000000000000000000000000000088888b89898989611eb1565b505050505050505050565b61271081565b61106f611514565b73ffffffffffffffffffffffffffffffffffffffff1661108d610ad2565b73ffffffffffffffffffffffffffffffffffffffff1614611116576040517f08c379a00000000000000000000000000000000000000000000000000000000081526004018080602001828103825260208152602001807f4f776e61626c653a2063616c6c6572206973206e6f7420746865206f776e657281525060200191505060405180910390fd5b600073ffffffffffffffffffffffffffffffffffffffff168173ffffffffffffffffffffffffffffffffffffffff16141561119c576040517f08c379a0000000000000000000000000000000000000000000000000000000008152600401808060200182810382526026815260200180613bb96026913960400191505060405180910390fd5b8073ffffffffffffffffffffffffffffffffffffffff16603360009054906101000a900473ffffffffffffffffffffffffffffffffffffffff1673ffffffffffffffffffffffffffffffffffffffff167f8be0079c531659141344cd1fd0a4f28419497f9722a3daafe3b4186f6b6457e060405160405180910390a380603360006101000a81548173ffffffffffffffffffffffffffffffffffffffff021916908373ffffffffffffffffffffffffffffffffffffffff16021790555050565b7f000000000000000000000000000000000000000000000000000000000000000081565b7f000000000000000000000000000000000000000000000000000000000000000073ffffffffffffffffffffffffffffffffffffffff163373ffffffffffffffffffffffffffffffffffffffff161461130e576040517f08c379a0000000000000000000000000000000000000000000000000000000008152600401611305906136f8565b60405180910390fd5b61131661202f565b42606d81905550565b606481565b60008114806113f2575060008373ffffffffffffffffffffffffffffffffffffffff1663dd62ed3e30856040518363ffffffff1660e01b8152600401808373ffffffffffffffffffffffffffffffffffffffff1681526020018273ffffffffffffffffffffffffffffffffffffffff1681526020019250505060206040518083038186803b1580156113b557600080fd5b505afa1580156113c9573d6000803e3d6000fd5b505050506040513d60208110156113df57600080fd5b8101908080519060200190929190505050145b611447576040517f08c379a0000000000000000000000000000000000000000000000000000000008152600401808060200182810382526036815260200180613c506036913960400191505060405180910390fd5b6114e48363095ea7b360e01b8484604051602401808373ffffffffffffffffffffffffffffffffffffffff16815260200182815260200192505050604051602081830303815290604052907bffffffffffffffffffffffffffffffffffffffffffffffffffffffff19166020820180517bffffffffffffffffffffffffffffffffffffffffffffffffffffffff83818316178352505050506121aa565b505050565b60606114f88484600085612299565b90509392505050565b600080823b905060008111915050919050565b600033905090565b60008083141561152f576000905061159c565b600082840290508284828161154057fe5b0414611597576040517f08c379a0000000000000000000000000000000000000000000000000000000008152600401808060200182810382526021815260200180613c056021913960400191505060405180910390fd5b809150505b92915050565b6000808211611619576040517f08c379a000000000000000000000000000000000000000000000000000000000815260040180806020018281038252601a8152602001807f536166654d6174683a206469766973696f6e206279207a65726f00000000000081525060200191505060405180910390fd5b81838161162257fe5b04905092915050565b6000808284019050838110156116a9576040517f08c379a000000000000000000000000000000000000000000000000000000000815260040180806020018281038252601b8152602001807f536166654d6174683a206164646974696f6e206f766572666c6f77000000000081525060200191505060405180910390fd5b8091505092915050565b6000600267ffffffffffffffff811180156116cd57600080fd5b5060405190808252806020026020018201604052801561170757816020015b6116f4612893565b8152602001906001900390816116ec5790505b5090506040518061010001604052806005600981111561172357fe5b81526020013073ffffffffffffffffffffffffffffffffffffffff1681526020013073ffffffffffffffffffffffffffffffffffffffff1681526020018673ffffffffffffffffffffffffffffffffffffffff168152602001600181526020018581526020016000815260200160405180602001604052806000815250815250816000815181106117b057fe5b6020026020010181905250604051806101000160405280600160098111156117d457fe5b81526020013073ffffffffffffffffffffffffffffffffffffffff1681526020013073ffffffffffffffffffffffffffffffffffffffff1681526020018473ffffffffffffffffffffffffffffffffffffffff1681526020016001815260200183815260200160008152602001604051806020016040528060008152508152508160018151811061186157fe5b6020026020010181905250606b60009054906101000a900473ffffffffffffffffffffffffffffffffffffffff1673ffffffffffffffffffffffffffffffffffffffff1663b617f0c6826040518263ffffffff1660e01b81526004016118c79190613594565b600060405180830381600087803b1580156118e157600080fd5b505af11580156118f5573d6000803e3d6000fd5b505050505050505050565b80606001516040015173ffffffffffffffffffffffffffffffffffffffff1663095ea7b3606660009054906101000a900473ffffffffffffffffffffffffffffffffffffffff168360600151606001516040518363ffffffff1660e01b815260040161196d929190613542565b602060405180830381600087803b15801561198757600080fd5b505af115801561199b573d6000803e3d6000fd5b505050506040513d601f19601f820116820180604052508101906119bf9190612be3565b50606660009054906101000a900473ffffffffffffffffffffffffffffffffffffffff1673ffffffffffffffffffffffffffffffffffffffff166367641c2f826040518263ffffffff1660e01b8152600401611a1b91906137f8565b600060405180830381600087803b158015611a3557600080fd5b505af1158015611a49573d6000803e3d6000fd5b5050505050565b600080606c5414158015611ab35750600073ffffffffffffffffffffffffffffffffffffffff16606760009054906101000a900473ffffffffffffffffffffffffffffffffffffffff1673ffffffffffffffffffffffffffffffffffffffff1614155b15611b8c57606b60009054906101000a900473ffffffffffffffffffffffffffffffffffffffff1673ffffffffffffffffffffffffffffffffffffffff1663e723406c606760009054906101000a900473ffffffffffffffffffffffffffffffffffffffff166040518263ffffffff1660e01b8152600401611b359190613477565b60206040518083038186803b158015611b4d57600080fd5b505afa158015611b61573d6000803e3d6000fd5b505050506040513d601f19601f82011682018060405250810190611b859190612be3565b9050611b91565b600090505b90565b606a60019054906101000a900473ffffffffffffffffffffffffffffffffffffffff1673ffffffffffffffffffffffffffffffffffffffff166311946b98826040518263ffffffff1660e01b8152600401611bef9190613477565b60206040518083038186803b158015611c0757600080fd5b505afa158015611c1b573d6000803e3d6000fd5b505050506040513d601f19601f82011682018060405250810190611c3f9190612be3565b611c7e576040517f08c379a0000000000000000000000000000000000000000000000000000000008152600401611c75906137d8565b60405180910390fd5b611c8781612441565b50565b6000600167ffffffffffffffff81118015611ca457600080fd5b50604051908082528060200260200182016040528015611cde57816020015b611ccb612893565b815260200190600190039081611cc35790505b50905060405180610100016040528060076009811115611cfa57fe5b81526020013073ffffffffffffffffffffffffffffffffffffffff1681526020013073ffffffffffffffffffffffffffffffffffffffff168152602001600073ffffffffffffffffffffffffffffffffffffffff1681526020016001815260200160008152602001600081526020016040518060200160405280600081525081525081600081518110611d8957fe5b6020026020010181905250606b60009054906101000a900473ffffffffffffffffffffffffffffffffffffffff1673ffffffffffffffffffffffffffffffffffffffff1663b617f0c6826040518263ffffffff1660e01b8152600401611def9190613594565b600060405180830381600087803b158015611e0957600080fd5b505af1158015611e1d573d6000803e3d6000fd5b5050505050565b600280811115611e3057fe5b606a60009054906101000a900460ff166002811115611e4b57fe5b14611e8b576040517f08c379a0000000000000000000000000000000000000000000000000000000008152600401611e8290613678565b60405180910390fd5b6000606a60006101000a81548160ff02191690836002811115611eaa57fe5b0217905550565b60008973ffffffffffffffffffffffffffffffffffffffff1663095ea7b3606560009054906101000a900473ffffffffffffffffffffffffffffffffffffffff16886040518363ffffffff1660e01b8152600401611f1092919061356b565b602060405180830381600087803b158015611f2a57600080fd5b505af1158015611f3e573d6000803e3d6000fd5b505050506040513d601f19601f82011682018060405250810190611f629190612be3565b50606560009054906101000a900473ffffffffffffffffffffffffffffffffffffffff1673ffffffffffffffffffffffffffffffffffffffff16630a4cd6c98b8b8b8b8b8b8b8b8b8b6040518b63ffffffff1660e01b8152600401611fd09a99989796959493929190613492565b602060405180830381600087803b158015611fea57600080fd5b505af1158015611ffe573d6000803e3d6000fd5b505050506040513d601f19601f820116820180604052508101906120229190612c0c565b5050505050505050505050565b6001600281111561203c57fe5b606a60009054906101000a900460ff16600281111561205757fe5b14612097576040517f08c379a000000000000000000000000000000000000000000000000000000000815260040161208e906136b8565b60405180910390fd5b61fd206069544203116120df576040517f08c379a00000000000000000000000000000000000000000000000000000000081526004016120d690613798565b60405180910390fd5b606860009054906101000a900473ffffffffffffffffffffffffffffffffffffffff16606760006101000a81548173ffffffffffffffffffffffffffffffffffffffff021916908373ffffffffffffffffffffffffffffffffffffffff1602179055506000606860006101000a81548173ffffffffffffffffffffffffffffffffffffffff021916908373ffffffffffffffffffffffffffffffffffffffff1602179055506002606a60006101000a81548160ff021916908360028111156121a357fe5b0217905550565b600061220c826040518060400160405280602081526020017f5361666545524332303a206c6f772d6c6576656c2063616c6c206661696c65648152508573ffffffffffffffffffffffffffffffffffffffff166114e99092919063ffffffff16565b90506000815111156122945780806020019051602081101561222d57600080fd5b8101908080519060200190929190505050612293576040517f08c379a000000000000000000000000000000000000000000000000000000000815260040180806020018281038252602a815260200180613c26602a913960400191505060405180910390fd5b5b505050565b6060824710156122f4576040517f08c379a0000000000000000000000000000000000000000000000000000000008152600401808060200182810382526026815260200180613bdf6026913960400191505060405180910390fd5b6122fd85612652565b61236f576040517f08c379a000000000000000000000000000000000000000000000000000000000815260040180806020018281038252601d8152602001807f416464726573733a2063616c6c20746f206e6f6e2d636f6e747261637400000081525060200191505060405180910390fd5b6000808673ffffffffffffffffffffffffffffffffffffffff1685876040518082805190602001908083835b602083106123be578051825260208201915060208101905060208303925061239b565b6001836020036101000a03801982511681845116808217855250505050505090500191505060006040518083038185875af1925050503d8060008114612420576040519150601f19603f3d011682016040523d82523d6000602084013e612425565b606091505b5091509150612435828286612665565b92505050949350505050565b600081905061254a8173ffffffffffffffffffffffffffffffffffffffff1663c52987cf6040518163ffffffff1660e01b815260040160206040518083038186803b15801561248f57600080fd5b505afa1580156124a3573d6000803e3d6000fd5b505050506040513d601f19601f820116820180604052508101906124c79190612c0c565b8273ffffffffffffffffffffffffffffffffffffffff1663f3c274a66040518163ffffffff1660e01b815260040160206040518083038186803b15801561250d57600080fd5b505afa158015612521573d6000803e3d6000fd5b505050506040513d601f19601f820116820180604052508101906125459190612be3565b612731565b612589576040517f08c379a000000000000000000000000000000000000000000000000000000000815260040161258090613758565b60405180910390fd5b61260f8173ffffffffffffffffffffffffffffffffffffffff1663ade6e2aa6040518163ffffffff1660e01b815260040160206040518083038186803b1580156125d257600080fd5b505afa1580156125e6573d6000803e3d6000fd5b505050506040513d601f19601f8201168201806040525081019061260a9190612c0c565b612871565b61264e576040517f08c379a0000000000000000000000000000000000000000000000000000000008152600401612645906136d8565b60405180910390fd5b5050565b600080823b905060008111915050919050565b606083156126755782905061272a565b6000835111156126885782518084602001fd5b816040517f08c379a00000000000000000000000000000000000000000000000000000000081526004018080602001828103825283818151815260200191508051906020019080838360005b838110156126ef5780820151818401526020810190506126d4565b50505050905090810190601f16801561271c5780820380516001836020036101000a031916815260200191505b509250505060405180910390fd5b9392505050565b600080606e60009054906101000a900473ffffffffffffffffffffffffffffffffffffffff1673ffffffffffffffffffffffffffffffffffffffff166341976e097f00000000000000000000000000000000000000000000000000000000000000006040518263ffffffff1660e01b81526004016127af9190613477565b60206040518083038186803b1580156127c757600080fd5b505afa1580156127db573d6000803e3d6000fd5b505050506040513d601f19601f820116820180604052508101906127ff9190612c0c565b9050821561283b5761283061271061282261251c8461151c90919063ffffffff16565b6115a290919063ffffffff16565b84111591505061286b565b6128646127106128566129048461151c90919063ffffffff16565b6115a290919063ffffffff16565b8410159150505b92915050565b60008161288a6213c6804261162b90919063ffffffff16565b10159050919050565b604051806101000160405280600060098111156128ac57fe5b8152602001600073ffffffffffffffffffffffffffffffffffffffff168152602001600073ffffffffffffffffffffffffffffffffffffffff168152602001600073ffffffffffffffffffffffffffffffffffffffff168152602001600081526020016000815260200160008152602001606081525090565b60008135905061293481613b00565b92915050565b60008135905061294981613b17565b92915050565b60008151905061295e81613b17565b92915050565b60008135905061297381613b2e565b92915050565b60008135905061298881613b45565b92915050565b60008135905061299d81613b5c565b92915050565b60006102e082840312156129b657600080fd5b6129c060c061382f565b905060006129d084828501612b66565b60008301525060206129e484828501612b66565b60208301525060406129f884828501612a42565b60408301525060e0612a0c84828501612a42565b606083015250610180612a2184828501612a42565b608083015250610220612a3684828501612aca565b60a08301525092915050565b600060a08284031215612a5457600080fd5b612a5e60a061382f565b90506000612a6e8482850161298e565b6000830152506020612a8284828501612925565b6020830152506040612a9684828501612925565b6040830152506060612aaa84828501612b66565b6060830152506080612abe84828501612b66565b60808301525092915050565b600060c08284031215612adc57600080fd5b612ae660c061382f565b90506000612af684828501612925565b6000830152506020612b0a84828501612925565b6020830152506040612b1e84828501612964565b6040830152506060612b3284828501612b90565b6060830152506080612b4684828501612979565b60808301525060a0612b5a84828501612979565b60a08301525092915050565b600081359050612b7581613b73565b92915050565b600081519050612b8a81613b73565b92915050565b600081359050612b9f81613b8a565b92915050565b600081359050612bb481613ba1565b92915050565b600060208284031215612bcc57600080fd5b6000612bda84828501612925565b91505092915050565b600060208284031215612bf557600080fd5b6000612c038482850161294f565b91505092915050565b600060208284031215612c1e57600080fd5b6000612c2c84828501612b7b565b91505092915050565b60008060006103208486031215612c4b57600080fd5b6000612c5986828701612b66565b9350506020612c6a86828701612b66565b9250506040612c7b868287016129a3565b9150509250925092565b60008060008060008060008060006101208a8c031215612ca457600080fd5b6000612cb28c828d01612b66565b9950506020612cc38c828d01612b66565b9850506040612cd48c828d01612ba5565b9750506060612ce58c828d01612b66565b9650506080612cf68c828d01612b66565b95505060a0612d078c828d01612ba5565b94505060c0612d188c828d01612b66565b93505060e0612d298c828d01612b66565b925050610100612d3b8c828d0161293a565b9150509295985092959850929598565b6000612d57838361321b565b905092915050565b612d68816138d7565b82525050565b612d77816138d7565b82525050565b6000612d8882613870565b612d928185613893565b935083602082028501612da485613860565b8060005b85811015612de05784840389528151612dc18582612d4b565b9450612dcc83613886565b925060208a01995050600181019050612da8565b50829750879550505050505092915050565b612dfb816138e9565b82525050565b612e0a816138f5565b82525050565b612e1981613921565b82525050565b612e288161392b565b82525050565b6000612e398261387b565b612e4381856138a4565b9350612e53818560208601613a92565b612e5c81613ac7565b840191505092915050565b612e70816139cc565b82525050565b612e7f816139f0565b82525050565b612e8e81613a14565b82525050565b612e9d81613a38565b82525050565b612eac81613a5c565b82525050565b612ebb81613a6e565b82525050565b6000612ece6007836138c6565b91507f2153656e646572000000000000000000000000000000000000000000000000006000830152602082019050919050565b6000612f0e600a836138c6565b91507f21416374697661746564000000000000000000000000000000000000000000006000830152602082019050919050565b6000612f4e6014836138c6565b91507f43616e206f6e6c792073656c6c206f746f6b656e0000000000000000000000006000830152602082019050919050565b6000612f8e6009836138c6565b91507f21434f4d4d4954454400000000000000000000000000000000000000000000006000830152602082019050919050565b6000612fce600e836138c6565b91507f496e76616c6964206578706972790000000000000000000000000000000000006000830152602082019050919050565b600061300e6006836138c6565b91507f215641554c5400000000000000000000000000000000000000000000000000006000830152602082019050919050565b600061304e6015836138c6565b91507f43616e6e6f7420636c6f736520706f736974696f6e00000000000000000000006000830152602082019050919050565b600061308e6009836138c6565b91507f41637469766174656400000000000000000000000000000000000000000000006000830152602082019050919050565b60006130ce6014836138c6565b91507f537472696b6520507269636520546f6f204c6f770000000000000000000000006000830152602082019050919050565b600061310e6000836138b5565b9150600082019050919050565b60006131286017836138c6565b91507f43616e206f6e6c792073656c6c20666f722061737365740000000000000000006000830152602082019050919050565b60006131686015836138c6565b91507f434f4d4d49545f50484153455f4e4f545f4f56455200000000000000000000006000830152602082019050919050565b60006131a8601b836138c6565b91507f4e656564206d696e696d756d206f7074696f6e207072656d69756d00000000006000830152602082019050919050565b60006131e86007836138c6565b91507f214f544f4b454e000000000000000000000000000000000000000000000000006000830152602082019050919050565b6000610100830160008301516132346000860182612eb2565b5060208301516132476020860182612d5f565b50604083015161325a6040860182612d5f565b50606083015161326d6060860182612d5f565b506080830151613280608086018261342c565b5060a083015161329360a086018261342c565b5060c08301516132a660c086018261342c565b5060e083015184820360e08601526132be8282612e2e565b9150508091505092915050565b6102e0820160008201516132e2600085018261342c565b5060208201516132f5602085018261342c565b5060408201516133086040850182613349565b50606082015161331b60e0850182613349565b50608082015161332f610180850182613349565b5060a08201516133436102208501826133b1565b50505050565b60a08201600082015161335f6000850182612e1f565b5060208201516133726020850182612d5f565b5060408201516133856040850182612d5f565b506060820151613398606085018261342c565b5060808201516133ab608085018261342c565b50505050565b60c0820160008201516133c76000850182612d5f565b5060208201516133da6020850182612d5f565b5060408201516133ed6040850182612e01565b506060820151613400606085018261344a565b5060808201516134136080850182612e10565b5060a082015161342660a0850182612e10565b50505050565b6134358161399d565b82525050565b6134448161399d565b82525050565b613453816139a7565b82525050565b61346281613a80565b82525050565b613471816139b4565b82525050565b600060208201905061348c6000830184612d6e565b92915050565b6000610160820190506134a8600083018d612d6e565b6134b5602083018c612d6e565b6134c2604083018b61343b565b6134cf606083018a61343b565b6134dc6080830189613468565b6134e960a0830188613468565b6134f660c083018761343b565b61350360e083018661343b565b613511610100830185612df2565b61351f610120830184612d6e565b81810361014083015261353181613101565b90509b9a5050505050505050505050565b60006040820190506135576000830185612d6e565b613564602083018461343b565b9392505050565b60006040820190506135806000830185612d6e565b61358d6020830184613459565b9392505050565b600060208201905081810360008301526135ae8184612d7d565b905092915050565b60006020820190506135cb6000830184612df2565b92915050565b60006020820190506135e66000830184612e67565b92915050565b60006020820190506136016000830184612e76565b92915050565b600060208201905061361c6000830184612e85565b92915050565b60006020820190506136376000830184612e94565b92915050565b60006020820190506136526000830184612ea3565b92915050565b6000602082019050818103600083015261367181612ec1565b9050919050565b6000602082019050818103600083015261369181612f01565b9050919050565b600060208201905081810360008301526136b181612f41565b9050919050565b600060208201905081810360008301526136d181612f81565b9050919050565b600060208201905081810360008301526136f181612fc1565b9050919050565b6000602082019050818103600083015261371181613001565b9050919050565b6000602082019050818103600083015261373181613041565b9050919050565b6000602082019050818103600083015261375181613081565b9050919050565b60006020820190508181036000830152613771816130c1565b9050919050565b600060208201905081810360008301526137918161311b565b9050919050565b600060208201905081810360008301526137b18161315b565b9050919050565b600060208201905081810360008301526137d18161319b565b9050919050565b600060208201905081810360008301526137f1816131db565b9050919050565b60006102e08201905061380e60008301846132cb565b92915050565b6000602082019050613829600083018461343b565b92915050565b6000604051905081810181811067ffffffffffffffff8211171561385657613855613ac5565b5b8060405250919050565b6000819050602082019050919050565b600081519050919050565b600081519050919050565b6000602082019050919050565b600082825260208201905092915050565b600082825260208201905092915050565b600082825260208201905092915050565b600082825260208201905092915050565b60006138e28261397d565b9050919050565b60008115159050919050565b60007fff0000000000000000000000000000000000000000000000000000000000000082169050919050565b6000819050919050565b60007fffffffff0000000000000000000000000000000000000000000000000000000082169050919050565b600081905061396582613ad8565b919050565b600081905061397882613aec565b919050565b600073ffffffffffffffffffffffffffffffffffffffff82169050919050565b6000819050919050565b600060ff82169050919050565b60006bffffffffffffffffffffffff82169050919050565b60006139d7826139de565b9050919050565b60006139e98261397d565b9050919050565b60006139fb82613a02565b9050919050565b6000613a0d8261397d565b9050919050565b6000613a1f82613a26565b9050919050565b6000613a318261397d565b9050919050565b6000613a4382613a4a565b9050919050565b6000613a558261397d565b9050919050565b6000613a6782613957565b9050919050565b6000613a798261396a565b9050919050565b6000613a8b826139b4565b9050919050565b60005b83811015613ab0578082015181840152602081019050613a95565b83811115613abf576000848401525b50505050565bfe5b6000601f19601f8301169050919050565b60038110613ae957613ae8613ac5565b5b50565b600a8110613afd57613afc613ac5565b5b50565b613b09816138d7565b8114613b1457600080fd5b50565b613b20816138e9565b8114613b2b57600080fd5b50565b613b37816138f5565b8114613b4257600080fd5b50565b613b4e81613921565b8114613b5957600080fd5b50565b613b658161392b565b8114613b7057600080fd5b50565b613b7c8161399d565b8114613b8757600080fd5b50565b613b93816139a7565b8114613b9e57600080fd5b50565b613baa816139b4565b8114613bb557600080fd5b5056fe4f776e61626c653a206e6577206f776e657220697320746865207a65726f2061646472657373416464726573733a20696e73756666696369656e742062616c616e636520666f722063616c6c536166654d6174683a206d756c7469706c69636174696f6e206f766572666c6f775361666545524332303a204552433230206f7065726174696f6e20646964206e6f7420737563636565645361666545524332303a20617070726f76652066726f6d206e6f6e2d7a65726f20746f206e6f6e2d7a65726f20616c6c6f77616e6365a2646970667358221220fa11e3b72f1451a4ff3942f93cb94459e036090c4fde74d087526387209dc38d64736f6c63430007060033416464726573733a20696e73756666696369656e742062616c616e636520666f722063616c6c496e697469616c697a61626c653a20636f6e747261637420697320616c726561647920696e697469616c697a65645361666545524332303a204552433230206f7065726174696f6e20646964206e6f7420737563636565645361666545524332303a20617070726f76652066726f6d206e6f6e2d7a65726f20746f206e6f6e2d7a65726f20616c6c6f77616e6365",
  "linkReferences": {},
  "deployedLinkReferences": {}
}