{
  "_format": "hh-sol-artifact-1",
  "contractName": "MockPool",
  "sourceName": "contracts/mocks/MockPool.sol",
  "abi": [
    {
      "inputs": [
        {
          "internalType": "address",
          "name": "_user",
          "type": "address"
        },
        {
          "internalType": "address",
          "name": "_asset",
          "type": "address"
        },
        {
          "internalType": "uint256",
          "name": "_amount",
          "type": "uint256"
        }
      ],
      "name": "transferFromUser",
      "outputs": [],
      "stateMutability": "nonpayable",
      "type": "function"
    },
    {
      "inputs": [
        {
          "internalType": "address",
          "name": "_user",
          "type": "address"
        },
        {
          "internalType": "address",
          "name": "_asset",
          "type": "address"
        },
        {
          "internalType": "uint256",
          "name": "_amount",
          "type": "uint256"
        }
      ],
      "name": "transferToUser",
      "outputs": [],
      "stateMutability": "nonpayable",
      "type": "function"
    }
  ],
  "bytecode": "0x608060405234801561001057600080fd5b50610393806100206000396000f3fe608060405234801561001057600080fd5b50600436106100365760003560e01c80633184b9fd1461003b578063fa93b2a514610057575b600080fd5b610055600480360381019061005091906101da565b610073565b005b610071600480360381019061006c91906101da565b610108565b005b8173ffffffffffffffffffffffffffffffffffffffff166323b872dd8430846040518463ffffffff1660e01b81526004016100b093929190610270565b602060405180830381600087803b1580156100ca57600080fd5b505af11580156100de573d6000803e3d6000fd5b505050506040513d601f19601f820116820180604052508101906101029190610229565b50505050565b8173ffffffffffffffffffffffffffffffffffffffff1663a9059cbb84836040518363ffffffff1660e01b81526004016101439291906102a7565b602060405180830381600087803b15801561015d57600080fd5b505af1158015610171573d6000803e3d6000fd5b505050506040513d601f19601f820116820180604052508101906101959190610229565b50505050565b6000813590506101aa81610318565b92915050565b6000815190506101bf8161032f565b92915050565b6000813590506101d481610346565b92915050565b6000806000606084860312156101ef57600080fd5b60006101fd8682870161019b565b935050602061020e8682870161019b565b925050604061021f868287016101c5565b9150509250925092565b60006020828403121561023b57600080fd5b6000610249848285016101b0565b91505092915050565b61025b816102d0565b82525050565b61026a8161030e565b82525050565b60006060820190506102856000830186610252565b6102926020830185610252565b61029f6040830184610261565b949350505050565b60006040820190506102bc6000830185610252565b6102c96020830184610261565b9392505050565b60006102db826102ee565b9050919050565b60008115159050919050565b600073ffffffffffffffffffffffffffffffffffffffff82169050919050565b6000819050919050565b610321816102d0565b811461032c57600080fd5b50565b610338816102e2565b811461034357600080fd5b50565b61034f8161030e565b811461035a57600080fd5b5056fea26469706673582212202c7e677e5a300d9d6f1090aad6b8334b3a827f0b0ebaa32e32ca9dbb4f9d574564736f6c63430007060033",
  "linkReferences": {},
  "deployedLinkReferences": {}
}