{
  "_format": "hh-sol-artifact-1",
  "contractName": "OpynPerpVault",
  "sourceName": "contracts/core/OpynPerpVault.sol",
  "abi": [
    {
      "anonymous": false,
      "inputs": [
        {
          "indexed": true,
          "internalType": "address",
          "name": "owner",
          "type": "address"
        },
        {
          "indexed": true,
          "internalType": "address",
          "name": "spender",
          "type": "address"
        },
        {
          "indexed": false,
          "internalType": "uint256",
          "name": "value",
          "type": "uint256"
        }
      ],
      "name": "Approval",
      "type": "event"
    },
    {
      "anonymous": false,
      "inputs": [
        {
          "indexed": false,
          "internalType": "address",
          "name": "account",
          "type": "address"
        },
        {
          "indexed": false,
          "internalType": "uint256",
          "name": "amountDeposited",
          "type": "uint256"
        },
        {
          "indexed": false,
          "internalType": "uint256",
          "name": "shareMinted",
          "type": "uint256"
        }
      ],
      "name": "Deposit",
      "type": "event"
    },
    {
      "anonymous": false,
      "inputs": [
        {
          "indexed": true,
          "internalType": "address",
          "name": "previousOwner",
          "type": "address"
        },
        {
          "indexed": true,
          "internalType": "address",
          "name": "newOwner",
          "type": "address"
        }
      ],
      "name": "OwnershipTransferred",
      "type": "event"
    },
    {
      "anonymous": false,
      "inputs": [
        {
          "indexed": false,
          "internalType": "uint256[]",
          "name": "allocations",
          "type": "uint256[]"
        }
      ],
      "name": "Rollover",
      "type": "event"
    },
    {
      "anonymous": false,
      "inputs": [
        {
          "indexed": false,
          "internalType": "enum OpynPerpVault.VaultState",
          "name": "state",
          "type": "uint8"
        }
      ],
      "name": "StateUpdated",
      "type": "event"
    },
    {
      "anonymous": false,
      "inputs": [
        {
          "indexed": true,
          "internalType": "address",
          "name": "from",
          "type": "address"
        },
        {
          "indexed": true,
          "internalType": "address",
          "name": "to",
          "type": "address"
        },
        {
          "indexed": false,
          "internalType": "uint256",
          "name": "value",
          "type": "uint256"
        }
      ],
      "name": "Transfer",
      "type": "event"
    },
    {
      "anonymous": false,
      "inputs": [
        {
          "indexed": false,
          "internalType": "address",
          "name": "account",
          "type": "address"
        },
        {
          "indexed": false,
          "internalType": "uint256",
          "name": "amountWithdrawn",
          "type": "uint256"
        },
        {
          "indexed": false,
          "internalType": "uint256",
          "name": "fee",
          "type": "uint256"
        },
        {
          "indexed": false,
          "internalType": "uint256",
          "name": "shareBurned",
          "type": "uint256"
        }
      ],
      "name": "Withdraw",
      "type": "event"
    },
    {
      "inputs": [],
      "name": "BASE",
      "outputs": [
        {
          "internalType": "uint256",
          "name": "",
          "type": "uint256"
        }
      ],
      "stateMutability": "view",
      "type": "function"
    },
    {
      "inputs": [],
      "name": "CAP",
      "outputs": [
        {
          "internalType": "uint256",
          "name": "",
          "type": "uint256"
        }
      ],
      "stateMutability": "view",
      "type": "function"
    },
    {
      "inputs": [],
      "name": "WETH",
      "outputs": [
        {
          "internalType": "address",
          "name": "",
          "type": "address"
        }
      ],
      "stateMutability": "view",
      "type": "function"
    },
    {
      "inputs": [
        {
          "internalType": "uint256",
          "name": "",
          "type": "uint256"
        }
      ],
      "name": "actions",
      "outputs": [
        {
          "internalType": "address",
          "name": "",
          "type": "address"
        }
      ],
      "stateMutability": "view",
      "type": "function"
    },
    {
      "inputs": [
        {
          "internalType": "address",
          "name": "owner",
          "type": "address"
        },
        {
          "internalType": "address",
          "name": "spender",
          "type": "address"
        }
      ],
      "name": "allowance",
      "outputs": [
        {
          "internalType": "uint256",
          "name": "",
          "type": "uint256"
        }
      ],
      "stateMutability": "view",
      "type": "function"
    },
    {
      "inputs": [
        {
          "internalType": "address",
          "name": "spender",
          "type": "address"
        },
        {
          "internalType": "uint256",
          "name": "amount",
          "type": "uint256"
        }
      ],
      "name": "approve",
      "outputs": [
        {
          "internalType": "bool",
          "name": "",
          "type": "bool"
        }
      ],
      "stateMutability": "nonpayable",
      "type": "function"
    },
    {
      "inputs": [],
      "name": "asset",
      "outputs": [
        {
          "internalType": "address",
          "name": "",
          "type": "address"
        }
      ],
      "stateMutability": "view",
      "type": "function"
    },
    {
      "inputs": [
        {
          "internalType": "address",
          "name": "account",
          "type": "address"
        }
      ],
      "name": "balanceOf",
      "outputs": [
        {
          "internalType": "uint256",
          "name": "",
          "type": "uint256"
        }
      ],
      "stateMutability": "view",
      "type": "function"
    },
    {
      "inputs": [],
      "name": "closePositions",
      "outputs": [],
      "stateMutability": "nonpayable",
      "type": "function"
    },
    {
      "inputs": [],
      "name": "decimals",
      "outputs": [
        {
          "internalType": "uint8",
          "name": "",
          "type": "uint8"
        }
      ],
      "stateMutability": "view",
      "type": "function"
    },
    {
      "inputs": [
        {
          "internalType": "address",
          "name": "spender",
          "type": "address"
        },
        {
          "internalType": "uint256",
          "name": "subtractedValue",
          "type": "uint256"
        }
      ],
      "name": "decreaseAllowance",
      "outputs": [
        {
          "internalType": "bool",
          "name": "",
          "type": "bool"
        }
      ],
      "stateMutability": "nonpayable",
      "type": "function"
    },
    {
      "inputs": [
        {
          "internalType": "uint256",
          "name": "_amount",
          "type": "uint256"
        }
      ],
      "name": "deposit",
      "outputs": [],
      "stateMutability": "nonpayable",
      "type": "function"
    },
    {
      "inputs": [],
      "name": "depositETH",
      "outputs": [],
      "stateMutability": "payable",
      "type": "function"
    },
    {
      "inputs": [],
      "name": "emergencyPause",
      "outputs": [],
      "stateMutability": "nonpayable",
      "type": "function"
    },
    {
      "inputs": [],
      "name": "feeRecipient",
      "outputs": [
        {
          "internalType": "address",
          "name": "",
          "type": "address"
        }
      ],
      "stateMutability": "view",
      "type": "function"
    },
    {
      "inputs": [
        {
          "internalType": "uint256",
          "name": "_amount",
          "type": "uint256"
        }
      ],
      "name": "getSharesByDepositAmount",
      "outputs": [
        {
          "internalType": "uint256",
          "name": "",
          "type": "uint256"
        }
      ],
      "stateMutability": "view",
      "type": "function"
    },
    {
      "inputs": [
        {
          "internalType": "uint256",
          "name": "_shares",
          "type": "uint256"
        }
      ],
      "name": "getWithdrawAmountByShares",
      "outputs": [
        {
          "internalType": "uint256",
          "name": "",
          "type": "uint256"
        }
      ],
      "stateMutability": "view",
      "type": "function"
    },
    {
      "inputs": [
        {
          "internalType": "address",
          "name": "spender",
          "type": "address"
        },
        {
          "internalType": "uint256",
          "name": "addedValue",
          "type": "uint256"
        }
      ],
      "name": "increaseAllowance",
      "outputs": [
        {
          "internalType": "bool",
          "name": "",
          "type": "bool"
        }
      ],
      "stateMutability": "nonpayable",
      "type": "function"
    },
    {
      "inputs": [
        {
          "internalType": "address",
          "name": "_asset",
          "type": "address"
        },
        {
          "internalType": "address",
          "name": "_owner",
          "type": "address"
        },
        {
          "internalType": "address",
          "name": "_feeRecipient",
          "type": "address"
        },
        {
          "internalType": "address",
          "name": "_weth",
          "type": "address"
        },
        {
          "internalType": "uint8",
          "name": "_decimals",
          "type": "uint8"
        },
        {
          "internalType": "string",
          "name": "_tokenName",
          "type": "string"
        },
        {
          "internalType": "string",
          "name": "_tokenSymbol",
          "type": "string"
        },
        {
          "internalType": "address[]",
          "name": "_actions",
          "type": "address[]"
        }
      ],
      "name": "init",
      "outputs": [],
      "stateMutability": "nonpayable",
      "type": "function"
    },
    {
      "inputs": [],
      "name": "name",
      "outputs": [
        {
          "internalType": "string",
          "name": "",
          "type": "string"
        }
      ],
      "stateMutability": "view",
      "type": "function"
    },
    {
      "inputs": [],
      "name": "owner",
      "outputs": [
        {
          "internalType": "address",
          "name": "",
          "type": "address"
        }
      ],
      "stateMutability": "view",
      "type": "function"
    },
    {
      "inputs": [],
      "name": "renounceOwnership",
      "outputs": [],
      "stateMutability": "nonpayable",
      "type": "function"
    },
    {
      "inputs": [],
      "name": "resumeFromPause",
      "outputs": [],
      "stateMutability": "nonpayable",
      "type": "function"
    },
    {
      "inputs": [
        {
          "internalType": "uint256[]",
          "name": "_allocationPercentages",
          "type": "uint256[]"
        }
      ],
      "name": "rollOver",
      "outputs": [],
      "stateMutability": "nonpayable",
      "type": "function"
    },
    {
      "inputs": [
        {
          "internalType": "uint256",
          "name": "_reserve",
          "type": "uint256"
        }
      ],
      "name": "setWithdrawReserve",
      "outputs": [],
      "stateMutability": "nonpayable",
      "type": "function"
    },
    {
      "inputs": [],
      "name": "state",
      "outputs": [
        {
          "internalType": "enum OpynPerpVault.VaultState",
          "name": "",
          "type": "uint8"
        }
      ],
      "stateMutability": "view",
      "type": "function"
    },
    {
      "inputs": [],
      "name": "stateBeforePause",
      "outputs": [
        {
          "internalType": "enum OpynPerpVault.VaultState",
          "name": "",
          "type": "uint8"
        }
      ],
      "stateMutability": "view",
      "type": "function"
    },
    {
      "inputs": [],
      "name": "symbol",
      "outputs": [
        {
          "internalType": "string",
          "name": "",
          "type": "string"
        }
      ],
      "stateMutability": "view",
      "type": "function"
    },
    {
      "inputs": [],
      "name": "totalAsset",
      "outputs": [
        {
          "internalType": "uint256",
          "name": "",
          "type": "uint256"
        }
      ],
      "stateMutability": "view",
      "type": "function"
    },
    {
      "inputs": [],
      "name": "totalSupply",
      "outputs": [
        {
          "internalType": "uint256",
          "name": "",
          "type": "uint256"
        }
      ],
      "stateMutability": "view",
      "type": "function"
    },
    {
      "inputs": [
        {
          "internalType": "address",
          "name": "recipient",
          "type": "address"
        },
        {
          "internalType": "uint256",
          "name": "amount",
          "type": "uint256"
        }
      ],
      "name": "transfer",
      "outputs": [
        {
          "internalType": "bool",
          "name": "",
          "type": "bool"
        }
      ],
      "stateMutability": "nonpayable",
      "type": "function"
    },
    {
      "inputs": [
        {
          "internalType": "address",
          "name": "sender",
          "type": "address"
        },
        {
          "internalType": "address",
          "name": "recipient",
          "type": "address"
        },
        {
          "internalType": "uint256",
          "name": "amount",
          "type": "uint256"
        }
      ],
      "name": "transferFrom",
      "outputs": [
        {
          "internalType": "bool",
          "name": "",
          "type": "bool"
        }
      ],
      "stateMutability": "nonpayable",
      "type": "function"
    },
    {
      "inputs": [
        {
          "internalType": "address",
          "name": "newOwner",
          "type": "address"
        }
      ],
      "name": "transferOwnership",
      "outputs": [],
      "stateMutability": "nonpayable",
      "type": "function"
    },
    {
      "inputs": [
        {
          "internalType": "uint256",
          "name": "share",
          "type": "uint256"
        }
      ],
      "name": "withdraw",
      "outputs": [],
      "stateMutability": "nonpayable",
      "type": "function"
    },
    {
      "inputs": [
        {
          "internalType": "uint256",
          "name": "share",
          "type": "uint256"
        }
      ],
      "name": "withdrawETH",
      "outputs": [],
      "stateMutability": "nonpayable",
      "type": "function"
    },
    {
      "inputs": [],
      "name": "withdrawReserve",
      "outputs": [
        {
          "internalType": "uint256",
          "name": "",
          "type": "uint256"
        }
      ],
      "stateMutability": "view",
      "type": "function"
    },
    {
      "stateMutability": "payable",
      "type": "receive"
    }
  ],
  "bytecode": "0x608060405234801561001057600080fd5b5061599b80620000216000396000f3fe6080604052600436106102135760003560e01c806383240f8311610118578063b6b55f25116100a0578063ec81b4831161006f578063ec81b4831461083e578063f14210a614610869578063f2fde38b14610892578063f6326fb3146108bb578063f9557ccb146108c5576102aa565b8063b6b55f2514610782578063c19d93fb146107ab578063dd62ed3e146107d6578063ec342ad014610813576102aa565b806397859a31116100e757806397859a311461069b578063a457c2d7146106b2578063a9059cbb146106ef578063ace1fab11461072c578063ad5c464814610757576102aa565b806383240f83146105dd5780638d64fd601461061a5780638da5cb5b1461064557806395d89b4114610670576102aa565b806338d52e0f1161019b57806356b972991161016a57806356b97299146104fa57806370a082311461052357806370cf046e14610560578063715018a61461059d57806378775554146105b4576102aa565b806338d52e0f14610450578063395093511461047b57806346904840146104b857806351858e27146104e3576102aa565b806323b872dd116101e257806323b872dd1461037f5780632c507048146103bc5780632c98e25d146103e55780632e1a7d4d146103fc578063313ce56714610425576102aa565b806306fdde03146102af578063095ea7b3146102da57806313edaab41461031757806318160ddd14610354576102aa565b366102aa5760cb60009054906101000a900473ffffffffffffffffffffffffffffffffffffffff1673ffffffffffffffffffffffffffffffffffffffff163373ffffffffffffffffffffffffffffffffffffffff16146102a8576040517f08c379a000000000000000000000000000000000000000000000000000000000815260040161029f9061532c565b60405180910390fd5b005b600080fd5b3480156102bb57600080fd5b506102c46108f0565b6040516102d191906152ea565b60405180910390f35b3480156102e657600080fd5b5061030160048036038101906102fc9190614bdf565b610992565b60405161030e91906152b4565b60405180910390f35b34801561032357600080fd5b5061033e60048036038101906103399190614c89565b6109b0565b60405161034b91906154ec565b60405180910390f35b34801561036057600080fd5b506103696109ca565b60405161037691906154ec565b60405180910390f35b34801561038b57600080fd5b506103a660048036038101906103a19190614b90565b6109d4565b6040516103b391906152b4565b60405180910390f35b3480156103c857600080fd5b506103e360048036038101906103de9190614c1b565b610aad565b005b3480156103f157600080fd5b506103fa610cf1565b005b34801561040857600080fd5b50610423600480360381019061041e9190614c89565b610e81565b005b34801561043157600080fd5b5061043a610fd0565b6040516104479190615507565b60405180910390f35b34801561045c57600080fd5b50610465610fe7565b60405161047291906151b5565b60405180910390f35b34801561048757600080fd5b506104a2600480360381019061049d9190614bdf565b61100d565b6040516104af91906152b4565b60405180910390f35b3480156104c457600080fd5b506104cd6110c0565b6040516104da91906151b5565b60405180910390f35b3480156104ef57600080fd5b506104f86110e6565b005b34801561050657600080fd5b50610521600480360381019061051c9190614c89565b611225565b005b34801561052f57600080fd5b5061054a60048036038101906105459190614a31565b611322565b60405161055791906154ec565b60405180910390f35b34801561056c57600080fd5b5061058760048036038101906105829190614c89565b61136b565b60405161059491906154ec565b60405180910390f35b3480156105a957600080fd5b506105b26113a2565b005b3480156105c057600080fd5b506105db60048036038101906105d69190614a96565b611512565b005b3480156105e957600080fd5b5061060460048036038101906105ff9190614c89565b611869565b60405161061191906151b5565b60405180910390f35b34801561062657600080fd5b5061062f6118a8565b60405161063c91906152cf565b60405180910390f35b34801561065157600080fd5b5061065a6118bb565b60405161066791906151b5565b60405180910390f35b34801561067c57600080fd5b506106856118e5565b60405161069291906152ea565b60405180910390f35b3480156106a757600080fd5b506106b0611987565b005b3480156106be57600080fd5b506106d960048036038101906106d49190614bdf565b611a55565b6040516106e691906152b4565b60405180910390f35b3480156106fb57600080fd5b5061071660048036038101906107119190614bdf565b611b22565b60405161072391906152b4565b60405180910390f35b34801561073857600080fd5b50610741611b40565b60405161074e91906154ec565b60405180910390f35b34801561076357600080fd5b5061076c611b46565b60405161077991906151b5565b60405180910390f35b34801561078e57600080fd5b506107a960048036038101906107a49190614c89565b611b6c565b005b3480156107b757600080fd5b506107c0611c2f565b6040516107cd91906152cf565b60405180910390f35b3480156107e257600080fd5b506107fd60048036038101906107f89190614a5a565b611c42565b60405161080a91906154ec565b60405180910390f35b34801561081f57600080fd5b50610828611cc9565b60405161083591906154ec565b60405180910390f35b34801561084a57600080fd5b50610853611ccf565b60405161086091906154ec565b60405180910390f35b34801561087557600080fd5b50610890600480360381019061088b9190614c89565b611cdc565b005b34801561089e57600080fd5b506108b960048036038101906108b49190614a31565b611fca565b005b6108c36121bf565b005b3480156108d157600080fd5b506108da612433565b6040516108e791906154ec565b60405180910390f35b606060368054600181600116156101000203166002900480601f0160208091040260200160405190810160405280929190818152602001828054600181600116156101000203166002900480156109885780601f1061095d57610100808354040283529160200191610988565b820191906000526020600020905b81548152906001019060200180831161096b57829003601f168201915b5050505050905090565b60006109a661099f612442565b848461244a565b6001905092915050565b60006109c3826109be612641565b612669565b9050919050565b6000603554905090565b60006109e18484846126b8565b610aa2846109ed612442565b610a9d8560405180606001604052806028815260200161588560289139603460008b73ffffffffffffffffffffffffffffffffffffffff1673ffffffffffffffffffffffffffffffffffffffff1681526020019081526020016000206000610a53612442565b73ffffffffffffffffffffffffffffffffffffffff1673ffffffffffffffffffffffffffffffffffffffff1681526020019081526020016000205461297d9092919063ffffffff16565b61244a565b600190509392505050565b610ab5612442565b73ffffffffffffffffffffffffffffffffffffffff16610ad36118bb565b73ffffffffffffffffffffffffffffffffffffffff1614610b5c576040517f08c379a00000000000000000000000000000000000000000000000000000000081526004018080602001828103825260208152602001807f4f776e61626c653a2063616c6c6572206973206e6f7420746865206f776e657281525060200191505060405180910390fd5b60016002811115610b6957fe5b60c960009054906101000a900460ff166002811115610b8457fe5b14610bc4576040517f08c379a0000000000000000000000000000000000000000000000000000000008152600401610bbb906154cc565b60405180910390fd5b60ce805490508282905014610c0e576040517f08c379a0000000000000000000000000000000000000000000000000000000008152600401610c059061536c565b60405180910390fd5b7f208d5f48745fe6e322f9885ee63d75875a3325c8c80eb378c080dff1659989cd8282604051610c3f929190615290565b60405180910390a1610c91828280806020026020016040519081016040528093929190818152602001838360200280828437600081840152601f19601f82011690508083019250505050505050612a37565b600060c960006101000a81548160ff02191690836002811115610cb057fe5b02179055507f23ad33ab6a13a00aa7d06cd167b2abd03dec86af3cf3cc91759dcd3ae84118876000604051610ce591906152cf565b60405180910390a15050565b610cf9612442565b73ffffffffffffffffffffffffffffffffffffffff16610d176118bb565b73ffffffffffffffffffffffffffffffffffffffff1614610da0576040517f08c379a00000000000000000000000000000000000000000000000000000000081526004018080602001828103825260208152602001807f4f776e61626c653a2063616c6c6572206973206e6f7420746865206f776e657281525060200191505060405180910390fd5b600280811115610dac57fe5b60c960009054906101000a900460ff166002811115610dc757fe5b14610e07576040517f08c379a0000000000000000000000000000000000000000000000000000000008152600401610dfe9061530c565b60405180910390fd5b60c960019054906101000a900460ff1660c960006101000a81548160ff02191690836002811115610e3457fe5b02179055507f23ad33ab6a13a00aa7d06cd167b2abd03dec86af3cf3cc91759dcd3ae841188760c960019054906101000a900460ff16604051610e7791906152cf565b60405180910390a1565b60026065541415610efa576040517f08c379a000000000000000000000000000000000000000000000000000000000815260040180806020018281038252601f8152602001807f5265656e7472616e637947756172643a207265656e7472616e742063616c6c0081525060200191505060405180910390fd5b6002606581905550600280811115610f0e57fe5b60c960009054906101000a900460ff166002811115610f2957fe5b1415610f6a576040517f08c379a0000000000000000000000000000000000000000000000000000000008152600401610f61906153cc565b60405180910390fd5b6000610f7582612d20565b9050610fc4338260cc60009054906101000a900473ffffffffffffffffffffffffffffffffffffffff1673ffffffffffffffffffffffffffffffffffffffff16612ec69092919063ffffffff16565b50600160658190555050565b6000603860009054906101000a900460ff16905090565b60cc60009054906101000a900473ffffffffffffffffffffffffffffffffffffffff1681565b60006110b661101a612442565b846110b1856034600061102b612442565b73ffffffffffffffffffffffffffffffffffffffff1673ffffffffffffffffffffffffffffffffffffffff16815260200190815260200160002060008973ffffffffffffffffffffffffffffffffffffffff1673ffffffffffffffffffffffffffffffffffffffff16815260200190815260200160002054612f6890919063ffffffff16565b61244a565b6001905092915050565b60cd60009054906101000a900473ffffffffffffffffffffffffffffffffffffffff1681565b6110ee612442565b73ffffffffffffffffffffffffffffffffffffffff1661110c6118bb565b73ffffffffffffffffffffffffffffffffffffffff1614611195576040517f08c379a00000000000000000000000000000000000000000000000000000000081526004018080602001828103825260208152602001807f4f776e61626c653a2063616c6c6572206973206e6f7420746865206f776e657281525060200191505060405180910390fd5b60c960009054906101000a900460ff1660c960016101000a81548160ff021916908360028111156111c257fe5b0217905550600260c960006101000a81548160ff021916908360028111156111e657fe5b02179055507f23ad33ab6a13a00aa7d06cd167b2abd03dec86af3cf3cc91759dcd3ae8411887600260405161121b91906152cf565b60405180910390a1565b61122d612442565b73ffffffffffffffffffffffffffffffffffffffff1661124b6118bb565b73ffffffffffffffffffffffffffffffffffffffff16146112d4576040517f08c379a00000000000000000000000000000000000000000000000000000000081526004018080602001828103825260208152602001807f4f776e61626c653a2063616c6c6572206973206e6f7420746865206f776e657281525060200191505060405180910390fd5b6113888110611318576040517f08c379a000000000000000000000000000000000000000000000000000000000815260040161130f9061542c565b60405180910390fd5b8060ca8190555050565b6000603360008373ffffffffffffffffffffffffffffffffffffffff1673ffffffffffffffffffffffffffffffffffffffff168152602001908152602001600020549050919050565b60008061137783612ff0565b905060006113848261303d565b9050611399818361306e90919063ffffffff16565b92505050919050565b6113aa612442565b73ffffffffffffffffffffffffffffffffffffffff166113c86118bb565b73ffffffffffffffffffffffffffffffffffffffff1614611451576040517f08c379a00000000000000000000000000000000000000000000000000000000081526004018080602001828103825260208152602001807f4f776e61626c653a2063616c6c6572206973206e6f7420746865206f776e657281525060200191505060405180910390fd5b600073ffffffffffffffffffffffffffffffffffffffff16609760009054906101000a900473ffffffffffffffffffffffffffffffffffffffff1673ffffffffffffffffffffffffffffffffffffffff167f8be0079c531659141344cd1fd0a4f28419497f9722a3daafe3b4186f6b6457e060405160405180910390a36000609760006101000a81548173ffffffffffffffffffffffffffffffffffffffff021916908373ffffffffffffffffffffffffffffffffffffffff160217905550565b600060019054906101000a900460ff168061153157506115306130f1565b5b80611547575060008054906101000a900460ff16155b61159c576040517f08c379a000000000000000000000000000000000000000000000000000000000815260040180806020018281038252602e815260200180615836602e913960400191505060405180910390fd5b60008060019054906101000a900460ff1615905080156115ec576001600060016101000a81548160ff02191690831515021790555060016000806101000a81548160ff0219169083151502179055505b6115f4613102565b6115fe8484613208565b6116078561331a565b61160f613338565b61161888611fca565b8860cc60006101000a81548173ffffffffffffffffffffffffffffffffffffffff021916908373ffffffffffffffffffffffffffffffffffffffff1602179055508660cd60006101000a81548173ffffffffffffffffffffffffffffffffffffffff021916908373ffffffffffffffffffffffffffffffffffffffff1602179055508560cb60006101000a81548173ffffffffffffffffffffffffffffffffffffffff021916908373ffffffffffffffffffffffffffffffffffffffff16021790555060005b82518110156118185760005b81811015611794578381815181106116fe57fe5b602002602001015173ffffffffffffffffffffffffffffffffffffffff1684838151811061172857fe5b602002602001015173ffffffffffffffffffffffffffffffffffffffff161415611787576040517f08c379a000000000000000000000000000000000000000000000000000000000815260040161177e9061546c565b60405180910390fd5b80806001019150506116ea565b5060ce8382815181106117a357fe5b60200260200101519080600181540180825580915050600190039060005260206000200160009091909190916101000a81548173ffffffffffffffffffffffffffffffffffffffff021916908373ffffffffffffffffffffffffffffffffffffffff16021790555080806001019150506116de565b50600160c960006101000a81548160ff0219169083600281111561183857fe5b0217905550801561185e5760008060016101000a81548160ff0219169083151502179055505b505050505050505050565b60ce818154811061187957600080fd5b906000526020600020016000915054906101000a900473ffffffffffffffffffffffffffffffffffffffff1681565b60c960019054906101000a900460ff1681565b6000609760009054906101000a900473ffffffffffffffffffffffffffffffffffffffff16905090565b606060378054600181600116156101000203166002900480601f01602080910402602001604051908101604052809291908181526020018280546001816001161561010002031660029004801561197d5780601f106119525761010080835404028352916020019161197d565b820191906000526020600020905b81548152906001019060200180831161196057829003601f168201915b5050505050905090565b6000600281111561199457fe5b60c960009054906101000a900460ff1660028111156119af57fe5b146119ef576040517f08c379a00000000000000000000000000000000000000000000000000000000081526004016119e69061540c565b60405180910390fd5b6119f7613446565b600160c960006101000a81548160ff02191690836002811115611a1657fe5b02179055507f23ad33ab6a13a00aa7d06cd167b2abd03dec86af3cf3cc91759dcd3ae84118876001604051611a4b91906152cf565b60405180910390a1565b6000611b18611a62612442565b84611b13856040518060600160405280602581526020016159416025913960346000611a8c612442565b73ffffffffffffffffffffffffffffffffffffffff1673ffffffffffffffffffffffffffffffffffffffff16815260200190815260200160002060008a73ffffffffffffffffffffffffffffffffffffffff1673ffffffffffffffffffffffffffffffffffffffff1681526020019081526020016000205461297d9092919063ffffffff16565b61244a565b6001905092915050565b6000611b36611b2f612442565b84846126b8565b6001905092915050565b60ca5481565b60cb60009054906101000a900473ffffffffffffffffffffffffffffffffffffffff1681565b600280811115611b7857fe5b60c960009054906101000a900460ff166002811115611b9357fe5b1415611bd4576040517f08c379a0000000000000000000000000000000000000000000000000000000008152600401611bcb906153cc565b60405180910390fd5b611c2333308360cc60009054906101000a900473ffffffffffffffffffffffffffffffffffffffff1673ffffffffffffffffffffffffffffffffffffffff16613662909392919063ffffffff16565b611c2c81613723565b50565b60c960009054906101000a900460ff1681565b6000603460008473ffffffffffffffffffffffffffffffffffffffff1673ffffffffffffffffffffffffffffffffffffffff16815260200190815260200160002060008373ffffffffffffffffffffffffffffffffffffffff1673ffffffffffffffffffffffffffffffffffffffff16815260200190815260200160002054905092915050565b61271081565b683635c9adc5dea0000081565b60026065541415611d55576040517f08c379a000000000000000000000000000000000000000000000000000000000815260040180806020018281038252601f8152602001807f5265656e7472616e637947756172643a207265656e7472616e742063616c6c0081525060200191505060405180910390fd5b6002606581905550600280811115611d6957fe5b60c960009054906101000a900460ff166002811115611d8457fe5b1415611dc5576040517f08c379a0000000000000000000000000000000000000000000000000000000008152600401611dbc906153cc565b60405180910390fd5b60cb60009054906101000a900473ffffffffffffffffffffffffffffffffffffffff1673ffffffffffffffffffffffffffffffffffffffff1660cc60009054906101000a900473ffffffffffffffffffffffffffffffffffffffff1673ffffffffffffffffffffffffffffffffffffffff1614611e77576040517f08c379a0000000000000000000000000000000000000000000000000000000008152600401611e6e906153ac565b60405180910390fd5b6000611e8282612d20565b905060cb60009054906101000a900473ffffffffffffffffffffffffffffffffffffffff1673ffffffffffffffffffffffffffffffffffffffff16632e1a7d4d826040518263ffffffff1660e01b8152600401611edf91906154ec565b600060405180830381600087803b158015611ef957600080fd5b505af1158015611f0d573d6000803e3d6000fd5b5050505060003373ffffffffffffffffffffffffffffffffffffffff1682604051611f37906151a0565b60006040518083038185875af1925050503d8060008114611f74576040519150601f19603f3d011682016040523d82523d6000602084013e611f79565b606091505b5050905080611fbd576040517f08c379a0000000000000000000000000000000000000000000000000000000008152600401611fb49061544c565b60405180910390fd5b5050600160658190555050565b611fd2612442565b73ffffffffffffffffffffffffffffffffffffffff16611ff06118bb565b73ffffffffffffffffffffffffffffffffffffffff1614612079576040517f08c379a00000000000000000000000000000000000000000000000000000000081526004018080602001828103825260208152602001807f4f776e61626c653a2063616c6c6572206973206e6f7420746865206f776e657281525060200191505060405180910390fd5b600073ffffffffffffffffffffffffffffffffffffffff168173ffffffffffffffffffffffffffffffffffffffff1614156120ff576040517f08c379a00000000000000000000000000000000000000000000000000000000081526004018080602001828103825260268152602001806157a26026913960400191505060405180910390fd5b8073ffffffffffffffffffffffffffffffffffffffff16609760009054906101000a900473ffffffffffffffffffffffffffffffffffffffff1673ffffffffffffffffffffffffffffffffffffffff167f8be0079c531659141344cd1fd0a4f28419497f9722a3daafe3b4186f6b6457e060405160405180910390a380609760006101000a81548173ffffffffffffffffffffffffffffffffffffffff021916908373ffffffffffffffffffffffffffffffffffffffff16021790555050565b60026065541415612238576040517f08c379a000000000000000000000000000000000000000000000000000000000815260040180806020018281038252601f8152602001807f5265656e7472616e637947756172643a207265656e7472616e742063616c6c0081525060200191505060405180910390fd5b600260658190555060028081111561224c57fe5b60c960009054906101000a900460ff16600281111561226757fe5b14156122a8576040517f08c379a000000000000000000000000000000000000000000000000000000000815260040161229f906153cc565b60405180910390fd5b60cb60009054906101000a900473ffffffffffffffffffffffffffffffffffffffff1673ffffffffffffffffffffffffffffffffffffffff1660cc60009054906101000a900473ffffffffffffffffffffffffffffffffffffffff1673ffffffffffffffffffffffffffffffffffffffff161461235a576040517f08c379a0000000000000000000000000000000000000000000000000000000008152600401612351906153ac565b60405180910390fd5b6000341161239d576040517f08c379a0000000000000000000000000000000000000000000000000000000008152600401612394906153ec565b60405180910390fd5b60cb60009054906101000a900473ffffffffffffffffffffffffffffffffffffffff1673ffffffffffffffffffffffffffffffffffffffff1663d0e30db0346040518263ffffffff1660e01b81526004016000604051808303818588803b15801561240757600080fd5b505af115801561241b573d6000803e3d6000fd5b505050505061242934613723565b6001606581905550565b600061243d612641565b905090565b600033905090565b600073ffffffffffffffffffffffffffffffffffffffff168373ffffffffffffffffffffffffffffffffffffffff1614156124d0576040517f08c379a00000000000000000000000000000000000000000000000000000000081526004018080602001828103825260248152602001806158f36024913960400191505060405180910390fd5b600073ffffffffffffffffffffffffffffffffffffffff168273ffffffffffffffffffffffffffffffffffffffff161415612556576040517f08c379a00000000000000000000000000000000000000000000000000000000081526004018080602001828103825260228152602001806157c86022913960400191505060405180910390fd5b80603460008573ffffffffffffffffffffffffffffffffffffffff1673ffffffffffffffffffffffffffffffffffffffff16815260200190815260200160002060008473ffffffffffffffffffffffffffffffffffffffff1673ffffffffffffffffffffffffffffffffffffffff168152602001908152602001600020819055508173ffffffffffffffffffffffffffffffffffffffff168373ffffffffffffffffffffffffffffffffffffffff167f8c5be1e5ebec7d5bd14f71427d1e84f3dd0314c0f7b2291e5b200ac8c7c3b925836040518082815260200191505060405180910390a3505050565b600061266461264e6137ea565b6126566138df565b61399190919063ffffffff16565b905090565b6000806126746109ca565b905060008082146126a9576126a4846126968488613a1990919063ffffffff16565b613a9f90919063ffffffff16565b6126ab565b845b9050809250505092915050565b600073ffffffffffffffffffffffffffffffffffffffff168373ffffffffffffffffffffffffffffffffffffffff16141561273e576040517f08c379a00000000000000000000000000000000000000000000000000000000081526004018080602001828103825260258152602001806158ce6025913960400191505060405180910390fd5b600073ffffffffffffffffffffffffffffffffffffffff168273ffffffffffffffffffffffffffffffffffffffff1614156127c4576040517f08c379a000000000000000000000000000000000000000000000000000000000815260040180806020018281038252602381526020018061575d6023913960400191505060405180910390fd5b6127cf838383613b28565b61283b816040518060600160405280602681526020016157ea60269139603360008773ffffffffffffffffffffffffffffffffffffffff1673ffffffffffffffffffffffffffffffffffffffff1681526020019081526020016000205461297d9092919063ffffffff16565b603360008573ffffffffffffffffffffffffffffffffffffffff1673ffffffffffffffffffffffffffffffffffffffff168152602001908152602001600020819055506128d081603360008573ffffffffffffffffffffffffffffffffffffffff1673ffffffffffffffffffffffffffffffffffffffff16815260200190815260200160002054612f6890919063ffffffff16565b603360008473ffffffffffffffffffffffffffffffffffffffff1673ffffffffffffffffffffffffffffffffffffffff168152602001908152602001600020819055508173ffffffffffffffffffffffffffffffffffffffff168373ffffffffffffffffffffffffffffffffffffffff167fddf252ad1be2c89b69c2b068fc378daa952ba7f163c4a11628f55a4df523b3ef836040518082815260200191505060405180910390a3505050565b6000838311158290612a2a576040517f08c379a00000000000000000000000000000000000000000000000000000000081526004018080602001828103825283818151815260200191508051906020019080838360005b838110156129ef5780820151818401526020810190506129d4565b50505050905090810190601f168015612a1c5780820380516001836020036101000a031916815260200191505b509250505060405180910390fd5b5082840390509392505050565b60026065541415612ab0576040517f08c379a000000000000000000000000000000000000000000000000000000000815260040180806020018281038252601f8152602001807f5265656e7472616e637947756172643a207265656e7472616e742063616c6c0081525060200191505060405180910390fd5b60026065819055506000612ac2612641565b905060006127109050600060ca549050600060cc60009054906101000a900473ffffffffffffffffffffffffffffffffffffffff16905060005b60ce805490508160ff161015612cce57612b35868260ff1681518110612b1e57fe5b60200260200101518461399190919063ffffffff16565b925083831115612b7a576040517f08c379a0000000000000000000000000000000000000000000000000000000008152600401612b719061534c565b60405180910390fd5b6000612bb785612ba9898560ff1681518110612b9257fe5b602002602001015189613a1990919063ffffffff16565b613a9f90919063ffffffff16565b90506000811115612c2857612c2760ce8360ff1681548110612bd557fe5b9060005260206000200160009054906101000a900473ffffffffffffffffffffffffffffffffffffffff16828573ffffffffffffffffffffffffffffffffffffffff16612ec69092919063ffffffff16565b5b60ce8260ff1681548110612c3857fe5b9060005260206000200160009054906101000a900473ffffffffffffffffffffffffffffffffffffffff1673ffffffffffffffffffffffffffffffffffffffff1663fcbbccb06040518163ffffffff1660e01b8152600401600060405180830381600087803b158015612caa57600080fd5b505af1158015612cbe573d6000803e3d6000fd5b5050505050600181019050612afc565b50828214612d11576040517f08c379a0000000000000000000000000000000000000000000000000000000008152600401612d089061538c565b60405180910390fd5b50505050600160658190555050565b600080612d2b6138df565b90506000612d3884612ff0565b905081811115612d7d576040517f08c379a0000000000000000000000000000000000000000000000000000000008152600401612d749061548c565b60405180910390fd5b612d873385613b2d565b6000612d928261303d565b905060cc60009054906101000a900473ffffffffffffffffffffffffffffffffffffffff1673ffffffffffffffffffffffffffffffffffffffff1663a9059cbb60cd60009054906101000a900473ffffffffffffffffffffffffffffffffffffffff16836040518363ffffffff1660e01b8152600401612e13929190615267565b602060405180830381600087803b158015612e2d57600080fd5b505af1158015612e41573d6000803e3d6000fd5b505050506040513d601f19601f82011682018060405250810190612e659190614c60565b506000612e7b828461306e90919063ffffffff16565b90507f02f25270a4d87bea75db541cdfe559334a275b4a233520ed6c0a2429667cca9433828489604051612eb29493929190615222565b60405180910390a180945050505050919050565b612f638363a9059cbb60e01b8484604051602401808373ffffffffffffffffffffffffffffffffffffffff16815260200182815260200192505050604051602081830303815290604052907bffffffffffffffffffffffffffffffffffffffffffffffffffffffff19166020820180517bffffffffffffffffffffffffffffffffffffffffffffffffffffffff8381831617835250505050613cf3565b505050565b600080828401905083811015612fe6576040517f08c379a000000000000000000000000000000000000000000000000000000000815260040180806020018281038252601b8152602001807f536166654d6174683a206164646974696f6e206f766572666c6f77000000000081525060200191505060405180910390fd5b8091505092915050565b600080612ffb612641565b905060006130076109ca565b90506000613030826130228588613a1990919063ffffffff16565b613a9f90919063ffffffff16565b9050809350505050919050565b6000613067612710613059603285613a1990919063ffffffff16565b613a9f90919063ffffffff16565b9050919050565b6000828211156130e6576040517f08c379a000000000000000000000000000000000000000000000000000000000815260040180806020018281038252601e8152602001807f536166654d6174683a207375627472616374696f6e206f766572666c6f77000081525060200191505060405180910390fd5b818303905092915050565b60006130fc30613de2565b15905090565b600060019054906101000a900460ff168061312157506131206130f1565b5b80613137575060008054906101000a900460ff16155b61318c576040517f08c379a000000000000000000000000000000000000000000000000000000000815260040180806020018281038252602e815260200180615836602e913960400191505060405180910390fd5b60008060019054906101000a900460ff1615905080156131dc576001600060016101000a81548160ff02191690831515021790555060016000806101000a81548160ff0219169083151502179055505b6131e4613df5565b80156132055760008060016101000a81548160ff0219169083151502179055505b50565b600060019054906101000a900460ff168061322757506132266130f1565b5b8061323d575060008054906101000a900460ff16155b613292576040517f08c379a000000000000000000000000000000000000000000000000000000000815260040180806020018281038252602e815260200180615836602e913960400191505060405180910390fd5b60008060019054906101000a900460ff1615905080156132e2576001600060016101000a81548160ff02191690831515021790555060016000806101000a81548160ff0219169083151502179055505b6132ea613efb565b6132f48383613ff9565b80156133155760008060016101000a81548160ff0219169083151502179055505b505050565b80603860006101000a81548160ff021916908360ff16021790555050565b600060019054906101000a900460ff168061335757506133566130f1565b5b8061336d575060008054906101000a900460ff16155b6133c2576040517f08c379a000000000000000000000000000000000000000000000000000000000815260040180806020018281038252602e815260200180615836602e913960400191505060405180910390fd5b60008060019054906101000a900460ff161590508015613412576001600060016101000a81548160ff02191690831515021790555060016000806101000a81548160ff0219169083151502179055505b61341a613efb565b613422614143565b80156134435760008060016101000a81548160ff0219169083151502179055505b50565b600060cc60009054906101000a900473ffffffffffffffffffffffffffffffffffffffff16905060005b60ce805490508160ff16101561365e5760ce8160ff168154811061349057fe5b9060005260206000200160009054906101000a900473ffffffffffffffffffffffffffffffffffffffff1673ffffffffffffffffffffffffffffffffffffffff1663c393d0e36040518163ffffffff1660e01b8152600401600060405180830381600087803b15801561350257600080fd5b505af1158015613516573d6000803e3d6000fd5b5050505060008273ffffffffffffffffffffffffffffffffffffffff166370a0823160ce8460ff168154811061354857fe5b9060005260206000200160009054906101000a900473ffffffffffffffffffffffffffffffffffffffff166040518263ffffffff1660e01b815260040161358f91906151b5565b60206040518083038186803b1580156135a757600080fd5b505afa1580156135bb573d6000803e3d6000fd5b505050506040513d601f19601f820116820180604052508101906135df9190614cb2565b905060008111156136525761365160ce8360ff16815481106135fd57fe5b9060005260206000200160009054906101000a900473ffffffffffffffffffffffffffffffffffffffff1630838673ffffffffffffffffffffffffffffffffffffffff16613662909392919063ffffffff16565b5b50600181019050613470565b5050565b61371d846323b872dd60e01b858585604051602401808473ffffffffffffffffffffffffffffffffffffffff1681526020018373ffffffffffffffffffffffffffffffffffffffff1681526020018281526020019350505050604051602081830303815290604052907bffffffffffffffffffffffffffffffffffffffffffffffffffffffff19166020820180517bffffffffffffffffffffffffffffffffffffffffffffffffffffffff8381831617835250505050613cf3565b50505050565b600061372d612641565b9050683635c9adc5dea00000811061377a576040517f08c379a0000000000000000000000000000000000000000000000000000000008152600401613771906154ac565b60405180910390fd5b600061378f838361306e90919063ffffffff16565b9050600061379d8483612669565b90507f90890809c654f11d6e72a28fa60149770a0d11ec6c92319d6ceb2bb0a4ea1a153385836040516137d2939291906151eb565b60405180910390a16137e433826142ea565b50505050565b6000806000905060005b60ce805490508110156138d7576138c860ce828154811061381157fe5b9060005260206000200160009054906101000a900473ffffffffffffffffffffffffffffffffffffffff1673ffffffffffffffffffffffffffffffffffffffff1663698996f86040518163ffffffff1660e01b815260040160206040518083038186803b15801561388157600080fd5b505afa158015613895573d6000803e3d6000fd5b505050506040513d601f19601f820116820180604052508101906138b99190614cb2565b8361399190919063ffffffff16565b915080806001019150506137f4565b508091505090565b600060cc60009054906101000a900473ffffffffffffffffffffffffffffffffffffffff1673ffffffffffffffffffffffffffffffffffffffff166370a08231306040518263ffffffff1660e01b815260040161393c91906151d0565b60206040518083038186803b15801561395457600080fd5b505afa158015613968573d6000803e3d6000fd5b505050506040513d601f19601f8201168201806040525081019061398c9190614cb2565b905090565b600080828401905083811015613a0f576040517f08c379a000000000000000000000000000000000000000000000000000000000815260040180806020018281038252601b8152602001807f536166654d6174683a206164646974696f6e206f766572666c6f77000000000081525060200191505060405180910390fd5b8091505092915050565b600080831415613a2c5760009050613a99565b6000828402905082848281613a3d57fe5b0414613a94576040517f08c379a00000000000000000000000000000000000000000000000000000000081526004018080602001828103825260218152602001806158646021913960400191505060405180910390fd5b809150505b92915050565b6000808211613b16576040517f08c379a000000000000000000000000000000000000000000000000000000000815260040180806020018281038252601a8152602001807f536166654d6174683a206469766973696f6e206279207a65726f00000000000081525060200191505060405180910390fd5b818381613b1f57fe5b04905092915050565b505050565b600073ffffffffffffffffffffffffffffffffffffffff168273ffffffffffffffffffffffffffffffffffffffff161415613bb3576040517f08c379a00000000000000000000000000000000000000000000000000000000081526004018080602001828103825260218152602001806158ad6021913960400191505060405180910390fd5b613bbf82600083613b28565b613c2b8160405180606001604052806022815260200161578060229139603360008673ffffffffffffffffffffffffffffffffffffffff1673ffffffffffffffffffffffffffffffffffffffff1681526020019081526020016000205461297d9092919063ffffffff16565b603360008473ffffffffffffffffffffffffffffffffffffffff1673ffffffffffffffffffffffffffffffffffffffff16815260200190815260200160002081905550613c83816035546144b390919063ffffffff16565b603581905550600073ffffffffffffffffffffffffffffffffffffffff168273ffffffffffffffffffffffffffffffffffffffff167fddf252ad1be2c89b69c2b068fc378daa952ba7f163c4a11628f55a4df523b3ef836040518082815260200191505060405180910390a35050565b6000613d55826040518060400160405280602081526020017f5361666545524332303a206c6f772d6c6576656c2063616c6c206661696c65648152508573ffffffffffffffffffffffffffffffffffffffff166145369092919063ffffffff16565b9050600081511115613ddd57808060200190516020811015613d7657600080fd5b8101908080519060200190929190505050613ddc576040517f08c379a000000000000000000000000000000000000000000000000000000000815260040180806020018281038252602a815260200180615917602a913960400191505060405180910390fd5b5b505050565b600080823b905060008111915050919050565b600060019054906101000a900460ff1680613e145750613e136130f1565b5b80613e2a575060008054906101000a900460ff16155b613e7f576040517f08c379a000000000000000000000000000000000000000000000000000000000815260040180806020018281038252602e815260200180615836602e913960400191505060405180910390fd5b60008060019054906101000a900460ff161590508015613ecf576001600060016101000a81548160ff02191690831515021790555060016000806101000a81548160ff0219169083151502179055505b60016065819055508015613ef85760008060016101000a81548160ff0219169083151502179055505b50565b600060019054906101000a900460ff1680613f1a5750613f196130f1565b5b80613f30575060008054906101000a900460ff16155b613f85576040517f08c379a000000000000000000000000000000000000000000000000000000000815260040180806020018281038252602e815260200180615836602e913960400191505060405180910390fd5b60008060019054906101000a900460ff161590508015613fd5576001600060016101000a81548160ff02191690831515021790555060016000806101000a81548160ff0219169083151502179055505b8015613ff65760008060016101000a81548160ff0219169083151502179055505b50565b600060019054906101000a900460ff168061401857506140176130f1565b5b8061402e575060008054906101000a900460ff16155b614083576040517f08c379a000000000000000000000000000000000000000000000000000000000815260040180806020018281038252602e815260200180615836602e913960400191505060405180910390fd5b60008060019054906101000a900460ff1615905080156140d3576001600060016101000a81548160ff02191690831515021790555060016000806101000a81548160ff0219169083151502179055505b82603690805190602001906140e99291906147d5565b5081603790805190602001906141009291906147d5565b506012603860006101000a81548160ff021916908360ff160217905550801561413e5760008060016101000a81548160ff0219169083151502179055505b505050565b600060019054906101000a900460ff168061416257506141616130f1565b5b80614178575060008054906101000a900460ff16155b6141cd576040517f08c379a000000000000000000000000000000000000000000000000000000000815260040180806020018281038252602e815260200180615836602e913960400191505060405180910390fd5b60008060019054906101000a900460ff16159050801561421d576001600060016101000a81548160ff02191690831515021790555060016000806101000a81548160ff0219169083151502179055505b6000614227612442565b905080609760006101000a81548173ffffffffffffffffffffffffffffffffffffffff021916908373ffffffffffffffffffffffffffffffffffffffff1602179055508073ffffffffffffffffffffffffffffffffffffffff16600073ffffffffffffffffffffffffffffffffffffffff167f8be0079c531659141344cd1fd0a4f28419497f9722a3daafe3b4186f6b6457e060405160405180910390a35080156142e75760008060016101000a81548160ff0219169083151502179055505b50565b600073ffffffffffffffffffffffffffffffffffffffff168273ffffffffffffffffffffffffffffffffffffffff16141561438d576040517f08c379a000000000000000000000000000000000000000000000000000000000815260040180806020018281038252601f8152602001807f45524332303a206d696e7420746f20746865207a65726f20616464726573730081525060200191505060405180910390fd5b61439960008383613b28565b6143ae81603554612f6890919063ffffffff16565b60358190555061440681603360008573ffffffffffffffffffffffffffffffffffffffff1673ffffffffffffffffffffffffffffffffffffffff16815260200190815260200160002054612f6890919063ffffffff16565b603360008473ffffffffffffffffffffffffffffffffffffffff1673ffffffffffffffffffffffffffffffffffffffff168152602001908152602001600020819055508173ffffffffffffffffffffffffffffffffffffffff16600073ffffffffffffffffffffffffffffffffffffffff167fddf252ad1be2c89b69c2b068fc378daa952ba7f163c4a11628f55a4df523b3ef836040518082815260200191505060405180910390a35050565b60008282111561452b576040517f08c379a000000000000000000000000000000000000000000000000000000000815260040180806020018281038252601e8152602001807f536166654d6174683a207375627472616374696f6e206f766572666c6f77000081525060200191505060405180910390fd5b818303905092915050565b6060614545848460008561454e565b90509392505050565b6060824710156145a9576040517f08c379a00000000000000000000000000000000000000000000000000000000081526004018080602001828103825260268152602001806158106026913960400191505060405180910390fd5b6145b2856146f6565b614624576040517f08c379a000000000000000000000000000000000000000000000000000000000815260040180806020018281038252601d8152602001807f416464726573733a2063616c6c20746f206e6f6e2d636f6e747261637400000081525060200191505060405180910390fd5b6000808673ffffffffffffffffffffffffffffffffffffffff1685876040518082805190602001908083835b602083106146735780518252602082019150602081019050602083039250614650565b6001836020036101000a03801982511681845116808217855250505050505090500191505060006040518083038185875af1925050503d80600081146146d5576040519150601f19603f3d011682016040523d82523d6000602084013e6146da565b606091505b50915091506146ea828286614709565b92505050949350505050565b600080823b905060008111915050919050565b60608315614719578290506147ce565b60008351111561472c5782518084602001fd5b816040517f08c379a00000000000000000000000000000000000000000000000000000000081526004018080602001828103825283818151815260200191508051906020019080838360005b83811015614793578082015181840152602081019050614778565b50505050905090810190601f1680156147c05780820380516001836020036101000a031916815260200191505b509250505060405180910390fd5b9392505050565b828054600181600116156101000203166002900490600052602060002090601f01602090048101928261480b5760008555614852565b82601f1061482457805160ff1916838001178555614852565b82800160010185558215614852579182015b82811115614851578251825591602001919060010190614836565b5b50905061485f9190614863565b5090565b5b8082111561487c576000816000905550600101614864565b5090565b600061489361488e84615553565b615522565b905080838252602082019050828560208602820111156148b257600080fd5b60005b858110156148e257816148c8888261492a565b8452602084019350602083019250506001810190506148b5565b5050509392505050565b60006148ff6148fa8461557f565b615522565b90508281526020810184848401111561491757600080fd5b614922848285615697565b509392505050565b60008135905061493981615700565b92915050565b600082601f83011261495057600080fd5b8135614960848260208601614880565b91505092915050565b60008083601f84011261497b57600080fd5b8235905067ffffffffffffffff81111561499457600080fd5b6020830191508360208202830111156149ac57600080fd5b9250929050565b6000815190506149c281615717565b92915050565b600082601f8301126149d957600080fd5b81356149e98482602086016148ec565b91505092915050565b600081359050614a018161572e565b92915050565b600081519050614a168161572e565b92915050565b600081359050614a2b81615745565b92915050565b600060208284031215614a4357600080fd5b6000614a518482850161492a565b91505092915050565b60008060408385031215614a6d57600080fd5b6000614a7b8582860161492a565b9250506020614a8c8582860161492a565b9150509250929050565b600080600080600080600080610100898b031215614ab357600080fd5b6000614ac18b828c0161492a565b9850506020614ad28b828c0161492a565b9750506040614ae38b828c0161492a565b9650506060614af48b828c0161492a565b9550506080614b058b828c01614a1c565b94505060a089013567ffffffffffffffff811115614b2257600080fd5b614b2e8b828c016149c8565b93505060c089013567ffffffffffffffff811115614b4b57600080fd5b614b578b828c016149c8565b92505060e089013567ffffffffffffffff811115614b7457600080fd5b614b808b828c0161493f565b9150509295985092959890939650565b600080600060608486031215614ba557600080fd5b6000614bb38682870161492a565b9350506020614bc48682870161492a565b9250506040614bd5868287016149f2565b9150509250925092565b60008060408385031215614bf257600080fd5b6000614c008582860161492a565b9250506020614c11858286016149f2565b9150509250929050565b60008060208385031215614c2e57600080fd5b600083013567ffffffffffffffff811115614c4857600080fd5b614c5485828601614969565b92509250509250929050565b600060208284031215614c7257600080fd5b6000614c80848285016149b3565b91505092915050565b600060208284031215614c9b57600080fd5b6000614ca9848285016149f2565b91505092915050565b600060208284031215614cc457600080fd5b6000614cd284828501614a07565b91505092915050565b614ce48161564f565b82525050565b614cf3816155e7565b82525050565b6000614d0583856155ba565b93507f07ffffffffffffffffffffffffffffffffffffffffffffffffffffffffffffff831115614d3457600080fd5b602083029250614d45838584615697565b82840190509392505050565b614d5a816155f9565b82525050565b614d6981615661565b82525050565b6000614d7a826155af565b614d8481856155d6565b9350614d948185602086016156a6565b614d9d816156db565b840191505092915050565b6000614db5600a836155d6565b91507f21456d657267656e6379000000000000000000000000000000000000000000006000830152602082019050919050565b6000614df56012836155d6565b91507f43616e6e6f7420726563656976652045544800000000000000000000000000006000830152602082019050919050565b6000614e356019836155d6565b91507f50455243454e544147455f53554d5f4558434545445f4d4158000000000000006000830152602082019050919050565b6000614e75600d836155d6565b91507f494e56414c49445f494e505554000000000000000000000000000000000000006000830152602082019050919050565b6000614eb56018836155d6565b91507f50455243454e544147455f444f45534e545f4144445f555000000000000000006000830152602082019050919050565b6000614ef56005836155d6565b91507f21574554480000000000000000000000000000000000000000000000000000006000830152602082019050919050565b6000614f356009836155d6565b91507f456d657267656e637900000000000000000000000000000000000000000000006000830152602082019050919050565b6000614f756006836155d6565b91507f2156414c554500000000000000000000000000000000000000000000000000006000830152602082019050919050565b6000614fb56007836155d6565b91507f214c6f636b6564000000000000000000000000000000000000000000000000006000830152602082019050919050565b6000614ff56019836155d6565b91507f526573657276652063616e6e6f742065786365656420353025000000000000006000830152602082019050919050565b60006150356000836155cb565b9150600082019050919050565b600061504f6013836155d6565b91507f455448207472616e73666572206661696c6564000000000000000000000000006000830152602082019050919050565b600061508f6011836155d6565b91507f6475706c69636174656420616374696f6e0000000000000000000000000000006000830152602082019050919050565b60006150cf6012836155d6565b91507f4e4f545f454e4f5547485f42414c414e434500000000000000000000000000006000830152602082019050919050565b600061510f600c836155d6565b91507f43617020657863656564656400000000000000000000000000000000000000006000830152602082019050919050565b600061514f6009836155d6565b91507f21556e6c6f636b656400000000000000000000000000000000000000000000006000830152602082019050919050565b61518b81615638565b82525050565b61519a81615642565b82525050565b60006151ab82615028565b9150819050919050565b60006020820190506151ca6000830184614cea565b92915050565b60006020820190506151e56000830184614cdb565b92915050565b60006060820190506152006000830186614cdb565b61520d6020830185615182565b61521a6040830184615182565b949350505050565b60006080820190506152376000830187614cdb565b6152446020830186615182565b6152516040830185615182565b61525e6060830184615182565b95945050505050565b600060408201905061527c6000830185614cea565b6152896020830184615182565b9392505050565b600060208201905081810360008301526152ab818486614cf9565b90509392505050565b60006020820190506152c96000830184614d51565b92915050565b60006020820190506152e46000830184614d60565b92915050565b600060208201905081810360008301526153048184614d6f565b905092915050565b6000602082019050818103600083015261532581614da8565b9050919050565b6000602082019050818103600083015261534581614de8565b9050919050565b6000602082019050818103600083015261536581614e28565b9050919050565b6000602082019050818103600083015261538581614e68565b9050919050565b600060208201905081810360008301526153a581614ea8565b9050919050565b600060208201905081810360008301526153c581614ee8565b9050919050565b600060208201905081810360008301526153e581614f28565b9050919050565b6000602082019050818103600083015261540581614f68565b9050919050565b6000602082019050818103600083015261542581614fa8565b9050919050565b6000602082019050818103600083015261544581614fe8565b9050919050565b6000602082019050818103600083015261546581615042565b9050919050565b6000602082019050818103600083015261548581615082565b9050919050565b600060208201905081810360008301526154a5816150c2565b9050919050565b600060208201905081810360008301526154c581615102565b9050919050565b600060208201905081810360008301526154e581615142565b9050919050565b60006020820190506155016000830184615182565b92915050565b600060208201905061551c6000830184615191565b92915050565b6000604051905081810181811067ffffffffffffffff82111715615549576155486156d9565b5b8060405250919050565b600067ffffffffffffffff82111561556e5761556d6156d9565b5b602082029050602081019050919050565b600067ffffffffffffffff82111561559a576155996156d9565b5b601f19601f8301169050602081019050919050565b600081519050919050565b600082825260208201905092915050565b600081905092915050565b600082825260208201905092915050565b60006155f282615618565b9050919050565b60008115159050919050565b6000819050615613826156ec565b919050565b600073ffffffffffffffffffffffffffffffffffffffff82169050919050565b6000819050919050565b600060ff82169050919050565b600061565a82615673565b9050919050565b600061566c82615605565b9050919050565b600061567e82615685565b9050919050565b600061569082615618565b9050919050565b82818337600083830152505050565b60005b838110156156c45780820151818401526020810190506156a9565b838111156156d3576000848401525b50505050565bfe5b6000601f19601f8301169050919050565b600381106156fd576156fc6156d9565b5b50565b615709816155e7565b811461571457600080fd5b50565b615720816155f9565b811461572b57600080fd5b50565b61573781615638565b811461574257600080fd5b50565b61574e81615642565b811461575957600080fd5b5056fe45524332303a207472616e7366657220746f20746865207a65726f206164647265737345524332303a206275726e20616d6f756e7420657863656564732062616c616e63654f776e61626c653a206e6577206f776e657220697320746865207a65726f206164647265737345524332303a20617070726f766520746f20746865207a65726f206164647265737345524332303a207472616e7366657220616d6f756e7420657863656564732062616c616e6365416464726573733a20696e73756666696369656e742062616c616e636520666f722063616c6c496e697469616c697a61626c653a20636f6e747261637420697320616c726561647920696e697469616c697a6564536166654d6174683a206d756c7469706c69636174696f6e206f766572666c6f7745524332303a207472616e7366657220616d6f756e74206578636565647320616c6c6f77616e636545524332303a206275726e2066726f6d20746865207a65726f206164647265737345524332303a207472616e736665722066726f6d20746865207a65726f206164647265737345524332303a20617070726f76652066726f6d20746865207a65726f20616464726573735361666545524332303a204552433230206f7065726174696f6e20646964206e6f74207375636365656445524332303a2064656372656173656420616c6c6f77616e63652062656c6f77207a65726fa26469706673582212202554c619067619cdd6baa3e4c8f0129b02376579a6bdf22e91a2c55f99dd93c564736f6c63430007060033",
  "linkReferences": {},
  "deployedLinkReferences": {}
}