{
  "_format": "hh-sol-artifact-1",
  "contractName": "MockAction",
  "sourceName": "contracts/mocks/MockAction.sol",
  "abi": [
    {
      "inputs": [
        {
          "internalType": "address",
          "name": "_vault",
          "type": "address"
        },
        {
          "internalType": "address",
          "name": "_asset",
          "type": "address"
        }
      ],
      "stateMutability": "nonpayable",
      "type": "constructor"
    },
    {
      "inputs": [],
      "name": "asset",
      "outputs": [
        {
          "internalType": "address",
          "name": "",
          "type": "address"
        }
      ],
      "stateMutability": "view",
      "type": "function"
    },
    {
      "inputs": [],
      "name": "closePosition",
      "outputs": [],
      "stateMutability": "nonpayable",
      "type": "function"
    },
    {
      "inputs": [],
      "name": "currentValue",
      "outputs": [
        {
          "internalType": "uint256",
          "name": "",
          "type": "uint256"
        }
      ],
      "stateMutability": "view",
      "type": "function"
    },
    {
      "inputs": [],
      "name": "rolloverCounter",
      "outputs": [
        {
          "internalType": "uint8",
          "name": "",
          "type": "uint8"
        }
      ],
      "stateMutability": "view",
      "type": "function"
    },
    {
      "inputs": [],
      "name": "rolloverPosition",
      "outputs": [],
      "stateMutability": "nonpayable",
      "type": "function"
    },
    {
      "inputs": [],
      "name": "vault",
      "outputs": [
        {
          "internalType": "address",
          "name": "",
          "type": "address"
        }
      ],
      "stateMutability": "view",
      "type": "function"
    }
  ],
  "bytecode": "0x608060405234801561001057600080fd5b5060405161086338038061086383398181016040528101906100329190610192565b816000806101000a81548173ffffffffffffffffffffffffffffffffffffffff021916908373ffffffffffffffffffffffffffffffffffffffff16021790555080600160006101000a81548173ffffffffffffffffffffffffffffffffffffffff021916908373ffffffffffffffffffffffffffffffffffffffff1602179055508073ffffffffffffffffffffffffffffffffffffffff1663095ea7b3837fffffffffffffffffffffffffffffffffffffffffffffffffffffffffffffffff6040518363ffffffff1660e01b815260040161010e929190610215565b602060405180830381600087803b15801561012857600080fd5b505af115801561013c573d6000803e3d6000fd5b505050506040513d601f19601f8201168201806040525081019061016091906101ce565b5050506102b4565b60008151905061017781610286565b92915050565b60008151905061018c8161029d565b92915050565b600080604083850312156101a557600080fd5b60006101b385828601610168565b92505060206101c485828601610168565b9150509250929050565b6000602082840312156101e057600080fd5b60006101ee8482850161017d565b91505092915050565b6102008161023e565b82525050565b61020f8161027c565b82525050565b600060408201905061022a60008301856101f7565b6102376020830184610206565b9392505050565b60006102498261025c565b9050919050565b60008115159050919050565b600073ffffffffffffffffffffffffffffffffffffffff82169050919050565b6000819050919050565b61028f8161023e565b811461029a57600080fd5b50565b6102a681610250565b81146102b157600080fd5b50565b6105a0806102c36000396000f3fe608060405234801561001057600080fd5b50600436106100625760003560e01c806338d52e0f14610067578063698996f8146100855780639cbceb8f146100a3578063c393d0e3146100c1578063fbfa77cf146100cb578063fcbbccb0146100e9575b600080fd5b61006f6100f3565b60405161007c9190610488565b60405180910390f35b61008d610119565b60405161009a91906104c3565b60405180910390f35b6100ab61025a565b6040516100b891906104de565b60405180910390f35b6100c961026d565b005b6100d36102fd565b6040516100e09190610488565b60405180910390f35b6100f1610321565b005b600160009054906101000a900473ffffffffffffffffffffffffffffffffffffffff1681565b60008060009054906101000a900473ffffffffffffffffffffffffffffffffffffffff1673ffffffffffffffffffffffffffffffffffffffff163373ffffffffffffffffffffffffffffffffffffffff16146101aa576040517f08c379a00000000000000000000000000000000000000000000000000000000081526004016101a1906104a3565b60405180910390fd5b600160009054906101000a900473ffffffffffffffffffffffffffffffffffffffff1673ffffffffffffffffffffffffffffffffffffffff166370a08231306040518263ffffffff1660e01b81526004016102059190610488565b60206040518083038186803b15801561021d57600080fd5b505afa158015610231573d6000803e3d6000fd5b505050506040513d601f19601f8201168201806040525081019061025591906103f2565b905090565b600160149054906101000a900460ff1681565b60008054906101000a900473ffffffffffffffffffffffffffffffffffffffff1673ffffffffffffffffffffffffffffffffffffffff163373ffffffffffffffffffffffffffffffffffffffff16146102fb576040517f08c379a00000000000000000000000000000000000000000000000000000000081526004016102f2906104a3565b60405180910390fd5b565b60008054906101000a900473ffffffffffffffffffffffffffffffffffffffff1681565b60008054906101000a900473ffffffffffffffffffffffffffffffffffffffff1673ffffffffffffffffffffffffffffffffffffffff163373ffffffffffffffffffffffffffffffffffffffff16146103af576040517f08c379a00000000000000000000000000000000000000000000000000000000081526004016103a6906104a3565b60405180910390fd5b60018060149054906101000a900460ff1601600160146101000a81548160ff021916908360ff160217905550565b6000815190506103ec81610553565b92915050565b60006020828403121561040457600080fd5b6000610412848285016103dd565b91505092915050565b6104248161050a565b82525050565b6000610437601f836104f9565b91507f4d6f636b416374696f6e3a2073656e646572206973206e6f74207661756c74006000830152602082019050919050565b6104738161053c565b82525050565b61048281610546565b82525050565b600060208201905061049d600083018461041b565b92915050565b600060208201905081810360008301526104bc8161042a565b9050919050565b60006020820190506104d8600083018461046a565b92915050565b60006020820190506104f36000830184610479565b92915050565b600082825260208201905092915050565b60006105158261051c565b9050919050565b600073ffffffffffffffffffffffffffffffffffffffff82169050919050565b6000819050919050565b600060ff82169050919050565b61055c8161053c565b811461056757600080fd5b5056fea2646970667358221220efaa01c8320f0b631eb1f297afdf8828d5db8c4c87b528ab554f13159ceb307c64736f6c63430007060033",
  "linkReferences": {},
  "deployedLinkReferences": {}
}