{
  "_format": "hh-sol-artifact-1",
  "contractName": "AuctionUtils",
  "sourceName": "contracts/utils/AuctionUtils.sol",
  "abi": [
    {
      "inputs": [],
      "name": "auction",
      "outputs": [
        {
          "internalType": "contract IEasyAuction",
          "name": "",
          "type": "address"
        }
      ],
      "stateMutability": "view",
      "type": "function"
    }
  ],
  "bytecode": "0x608060405234801561001057600080fd5b50610107806100206000396000f3fe6080604052348015600f57600080fd5b506004361060285760003560e01c80637d9f6db514602d575b600080fd5b60336047565b604051603e91906078565b60405180910390f35b60008054906101000a900473ffffffffffffffffffffffffffffffffffffffff1681565b60728160b1565b82525050565b6000602082019050608b6000830184606b565b92915050565b600073ffffffffffffffffffffffffffffffffffffffff82169050919050565b600060ba8260c1565b9050919050565b600060ca826091565b905091905056fea264697066735822122026259754e199933db491f6df14576fce0a9fb6c362d9a855b76a80ab193b73b564736f6c63430007060033",
  "linkReferences": {},
  "deployedLinkReferences": {}
}