{
  "_format": "hh-sol-artifact-1",
  "contractName": "RollOverBase",
  "sourceName": "contracts/utils/RollOverBase.sol",
  "abi": [
    {
      "anonymous": false,
      "inputs": [
        {
          "indexed": true,
          "internalType": "address",
          "name": "previousOwner",
          "type": "address"
        },
        {
          "indexed": true,
          "internalType": "address",
          "name": "newOwner",
          "type": "address"
        }
      ],
      "name": "OwnershipTransferred",
      "type": "event"
    },
    {
      "inputs": [],
      "name": "MIN_COMMIT_PERIOD",
      "outputs": [
        {
          "internalType": "uint256",
          "name": "",
          "type": "uint256"
        }
      ],
      "stateMutability": "view",
      "type": "function"
    },
    {
      "inputs": [
        {
          "internalType": "address",
          "name": "_nextOToken",
          "type": "address"
        }
      ],
      "name": "commitOToken",
      "outputs": [],
      "stateMutability": "nonpayable",
      "type": "function"
    },
    {
      "inputs": [],
      "name": "commitStateStart",
      "outputs": [
        {
          "internalType": "uint256",
          "name": "",
          "type": "uint256"
        }
      ],
      "stateMutability": "view",
      "type": "function"
    },
    {
      "inputs": [],
      "name": "nextOToken",
      "outputs": [
        {
          "internalType": "address",
          "name": "",
          "type": "address"
        }
      ],
      "stateMutability": "view",
      "type": "function"
    },
    {
      "inputs": [],
      "name": "opynWhitelist",
      "outputs": [
        {
          "internalType": "contract IWhitelist",
          "name": "",
          "type": "address"
        }
      ],
      "stateMutability": "view",
      "type": "function"
    },
    {
      "inputs": [],
      "name": "otoken",
      "outputs": [
        {
          "internalType": "address",
          "name": "",
          "type": "address"
        }
      ],
      "stateMutability": "view",
      "type": "function"
    },
    {
      "inputs": [],
      "name": "owner",
      "outputs": [
        {
          "internalType": "address",
          "name": "",
          "type": "address"
        }
      ],
      "stateMutability": "view",
      "type": "function"
    },
    {
      "inputs": [],
      "name": "renounceOwnership",
      "outputs": [],
      "stateMutability": "nonpayable",
      "type": "function"
    },
    {
      "inputs": [],
      "name": "state",
      "outputs": [
        {
          "internalType": "enum RollOverBase.ActionState",
          "name": "",
          "type": "uint8"
        }
      ],
      "stateMutability": "view",
      "type": "function"
    },
    {
      "inputs": [
        {
          "internalType": "address",
          "name": "newOwner",
          "type": "address"
        }
      ],
      "name": "transferOwnership",
      "outputs": [],
      "stateMutability": "nonpayable",
      "type": "function"
    }
  ],
  "bytecode": "0x608060405234801561001057600080fd5b50610b8d806100206000396000f3fe608060405234801561001057600080fd5b506004361061009e5760003560e01c80638da5cb5b116100665780638da5cb5b14610125578063ae8ecf5814610143578063b8c448a914610161578063c19d93fb1461017d578063f2fde38b1461019b5761009e565b80631aec62d0146100a357806327038f3d146100c15780633a91e1a4146100df5780636d992be2146100fd578063715018a61461011b575b600080fd5b6100ab6101b7565b6040516100b89190610a30565b60405180910390f35b6100c96101bd565b6040516100d691906109ba565b60405180910390f35b6100e76101e3565b6040516100f49190610a30565b60405180910390f35b6101056101e9565b604051610112919061099f565b60405180910390f35b61012361020f565b005b61012d61037f565b60405161013a919061099f565b60405180910390f35b61014b6103a9565b604051610158919061099f565b60405180910390f35b61017b60048036038101906101769190610891565b6103cf565b005b61018561055e565b60405161019291906109d5565b60405180910390f35b6101b560048036038101906101b09190610891565b610571565b005b60675481565b606860019054906101000a900473ffffffffffffffffffffffffffffffffffffffff1681565b61fd2081565b606660009054906101000a900473ffffffffffffffffffffffffffffffffffffffff1681565b610217610766565b73ffffffffffffffffffffffffffffffffffffffff1661023561037f565b73ffffffffffffffffffffffffffffffffffffffff16146102be576040517f08c379a00000000000000000000000000000000000000000000000000000000081526004018080602001828103825260208152602001807f4f776e61626c653a2063616c6c6572206973206e6f7420746865206f776e657281525060200191505060405180910390fd5b600073ffffffffffffffffffffffffffffffffffffffff16603360009054906101000a900473ffffffffffffffffffffffffffffffffffffffff1673ffffffffffffffffffffffffffffffffffffffff167f8be0079c531659141344cd1fd0a4f28419497f9722a3daafe3b4186f6b6457e060405160405180910390a36000603360006101000a81548173ffffffffffffffffffffffffffffffffffffffff021916908373ffffffffffffffffffffffffffffffffffffffff160217905550565b6000603360009054906101000a900473ffffffffffffffffffffffffffffffffffffffff16905090565b606560009054906101000a900473ffffffffffffffffffffffffffffffffffffffff1681565b6103d7610766565b73ffffffffffffffffffffffffffffffffffffffff166103f561037f565b73ffffffffffffffffffffffffffffffffffffffff161461047e576040517f08c379a00000000000000000000000000000000000000000000000000000000081526004018080602001828103825260208152602001807f4f776e61626c653a2063616c6c6572206973206e6f7420746865206f776e657281525060200191505060405180910390fd5b60028081111561048a57fe5b606860009054906101000a900460ff1660028111156104a557fe5b14156104e6576040517f08c379a00000000000000000000000000000000000000000000000000000000081526004016104dd906109f0565b60405180910390fd5b6104ef8161076e565b80606660006101000a81548173ffffffffffffffffffffffffffffffffffffffff021916908373ffffffffffffffffffffffffffffffffffffffff1602179055506001606860006101000a81548160ff0219169083600281111561054f57fe5b02179055504260678190555050565b606860009054906101000a900460ff1681565b610579610766565b73ffffffffffffffffffffffffffffffffffffffff1661059761037f565b73ffffffffffffffffffffffffffffffffffffffff1614610620576040517f08c379a00000000000000000000000000000000000000000000000000000000081526004018080602001828103825260208152602001807f4f776e61626c653a2063616c6c6572206973206e6f7420746865206f776e657281525060200191505060405180910390fd5b600073ffffffffffffffffffffffffffffffffffffffff168173ffffffffffffffffffffffffffffffffffffffff1614156106a6576040517f08c379a0000000000000000000000000000000000000000000000000000000008152600401808060200182810382526026815260200180610b326026913960400191505060405180910390fd5b8073ffffffffffffffffffffffffffffffffffffffff16603360009054906101000a900473ffffffffffffffffffffffffffffffffffffffff1673ffffffffffffffffffffffffffffffffffffffff167f8be0079c531659141344cd1fd0a4f28419497f9722a3daafe3b4186f6b6457e060405160405180910390a380603360006101000a81548173ffffffffffffffffffffffffffffffffffffffff021916908373ffffffffffffffffffffffffffffffffffffffff16021790555050565b600033905090565b606860019054906101000a900473ffffffffffffffffffffffffffffffffffffffff1673ffffffffffffffffffffffffffffffffffffffff166311946b98826040518263ffffffff1660e01b81526004016107c9919061099f565b60206040518083038186803b1580156107e157600080fd5b505afa1580156107f5573d6000803e3d6000fd5b505050506040513d601f19601f8201168201806040525081019061081991906108ba565b610858576040517f08c379a000000000000000000000000000000000000000000000000000000000815260040161084f90610a10565b60405180910390fd5b61086181610864565b50565b50565b60008135905061087681610b03565b92915050565b60008151905061088b81610b1a565b92915050565b6000602082840312156108a357600080fd5b60006108b184828501610867565b91505092915050565b6000602082840312156108cc57600080fd5b60006108da8482850161087c565b91505092915050565b6108ec81610a5c565b82525050565b6108fb81610ab7565b82525050565b61090a81610adb565b82525050565b600061091d600983610a4b565b91507f41637469766174656400000000000000000000000000000000000000000000006000830152602082019050919050565b600061095d600783610a4b565b91507f214f544f4b454e000000000000000000000000000000000000000000000000006000830152602082019050919050565b61099981610aad565b82525050565b60006020820190506109b460008301846108e3565b92915050565b60006020820190506109cf60008301846108f2565b92915050565b60006020820190506109ea6000830184610901565b92915050565b60006020820190508181036000830152610a0981610910565b9050919050565b60006020820190508181036000830152610a2981610950565b9050919050565b6000602082019050610a456000830184610990565b92915050565b600082825260208201905092915050565b6000610a6782610a8d565b9050919050565b60008115159050919050565b6000819050610a8882610aef565b919050565b600073ffffffffffffffffffffffffffffffffffffffff82169050919050565b6000819050919050565b6000610ac282610ac9565b9050919050565b6000610ad482610a8d565b9050919050565b6000610ae682610a7a565b9050919050565bfe5b60038110610b0057610aff610aed565b5b50565b610b0c81610a5c565b8114610b1757600080fd5b50565b610b2381610a6e565b8114610b2e57600080fd5b5056fe4f776e61626c653a206e6577206f776e657220697320746865207a65726f2061646472657373a2646970667358221220e254e6cf5bd17842e1f52911120a2d65a409632a0ae4c2298568b8dcc4904f2864736f6c63430007060033",
  "linkReferences": {},
  "deployedLinkReferences": {}
}