{
  "_format": "hh-sol-artifact-1",
  "contractName": "MockSwap",
  "sourceName": "contracts/mocks/MockSwap.sol",
  "abi": [
    {
      "inputs": [
        {
          "components": [
            {
              "internalType": "uint256",
              "name": "nonce",
              "type": "uint256"
            },
            {
              "internalType": "uint256",
              "name": "expiry",
              "type": "uint256"
            },
            {
              "components": [
                {
                  "internalType": "bytes4",
                  "name": "kind",
                  "type": "bytes4"
                },
                {
                  "internalType": "address",
                  "name": "wallet",
                  "type": "address"
                },
                {
                  "internalType": "address",
                  "name": "token",
                  "type": "address"
                },
                {
                  "internalType": "uint256",
                  "name": "amount",
                  "type": "uint256"
                },
                {
                  "internalType": "uint256",
                  "name": "id",
                  "type": "uint256"
                }
              ],
              "internalType": "struct SwapTypes.Party",
              "name": "signer",
              "type": "tuple"
            },
            {
              "components": [
                {
                  "internalType": "bytes4",
                  "name": "kind",
                  "type": "bytes4"
                },
                {
                  "internalType": "address",
                  "name": "wallet",
                  "type": "address"
                },
                {
                  "internalType": "address",
                  "name": "token",
                  "type": "address"
                },
                {
                  "internalType": "uint256",
                  "name": "amount",
                  "type": "uint256"
                },
                {
                  "internalType": "uint256",
                  "name": "id",
                  "type": "uint256"
                }
              ],
              "internalType": "struct SwapTypes.Party",
              "name": "sender",
              "type": "tuple"
            },
            {
              "components": [
                {
                  "internalType": "bytes4",
                  "name": "kind",
                  "type": "bytes4"
                },
                {
                  "internalType": "address",
                  "name": "wallet",
                  "type": "address"
                },
                {
                  "internalType": "address",
                  "name": "token",
                  "type": "address"
                },
                {
                  "internalType": "uint256",
                  "name": "amount",
                  "type": "uint256"
                },
                {
                  "internalType": "uint256",
                  "name": "id",
                  "type": "uint256"
                }
              ],
              "internalType": "struct SwapTypes.Party",
              "name": "affiliate",
              "type": "tuple"
            },
            {
              "components": [
                {
                  "internalType": "address",
                  "name": "signatory",
                  "type": "address"
                },
                {
                  "internalType": "address",
                  "name": "validator",
                  "type": "address"
                },
                {
                  "internalType": "bytes1",
                  "name": "version",
                  "type": "bytes1"
                },
                {
                  "internalType": "uint8",
                  "name": "v",
                  "type": "uint8"
                },
                {
                  "internalType": "bytes32",
                  "name": "r",
                  "type": "bytes32"
                },
                {
                  "internalType": "bytes32",
                  "name": "s",
                  "type": "bytes32"
                }
              ],
              "internalType": "struct SwapTypes.Signature",
              "name": "signature",
              "type": "tuple"
            }
          ],
          "internalType": "struct SwapTypes.Order",
          "name": "order",
          "type": "tuple"
        }
      ],
      "name": "swap",
      "outputs": [],
      "stateMutability": "nonpayable",
      "type": "function"
    }
  ],
  "bytecode": "0x608060405234801561001057600080fd5b506102d9806100206000396000f3fe608060405234801561001057600080fd5b506004361061002b5760003560e01c806367641c2f14610030575b600080fd5b61004a600480360381019061004591906101ae565b61004c565b005b60008160e0016020016020810190610064919061015c565b90508160e001604001602081019061007c919061015c565b73ffffffffffffffffffffffffffffffffffffffff166323b872dd82308560e001606001356040518463ffffffff1660e01b81526004016100bf939291906101f6565b602060405180830381600087803b1580156100d957600080fd5b505af11580156100ed573d6000803e3d6000fd5b505050506040513d601f19601f820116820180604052508101906101119190610185565b505050565b60008135905061012581610275565b92915050565b60008151905061013a8161028c565b92915050565b60006102e0828403121561015357600080fd5b81905092915050565b60006020828403121561016e57600080fd5b600061017c84828501610116565b91505092915050565b60006020828403121561019757600080fd5b60006101a58482850161012b565b91505092915050565b60006102e082840312156101c157600080fd5b60006101cf84828501610140565b91505092915050565b6101e18161022d565b82525050565b6101f08161026b565b82525050565b600060608201905061020b60008301866101d8565b61021860208301856101d8565b61022560408301846101e7565b949350505050565b60006102388261024b565b9050919050565b60008115159050919050565b600073ffffffffffffffffffffffffffffffffffffffff82169050919050565b6000819050919050565b61027e8161022d565b811461028957600080fd5b50565b6102958161023f565b81146102a057600080fd5b5056fea2646970667358221220f930dcbe38de068009f7088f2c13ff262a10e6d89ba6646ca377e546aac2b7eb64736f6c63430007060033",
  "linkReferences": {},
  "deployedLinkReferences": {}
}