{
  "_format": "hh-sol-artifact-1",
  "contractName": "MockController",
  "sourceName": "contracts/mocks/MockController.sol",
  "abi": [
    {
      "inputs": [],
      "name": "cacheCollateralAsset",
      "outputs": [
        {
          "internalType": "address",
          "name": "",
          "type": "address"
        }
      ],
      "stateMutability": "view",
      "type": "function"
    },
    {
      "inputs": [
        {
          "internalType": "address",
          "name": "",
          "type": "address"
        }
      ],
      "name": "isSettlementAllowed",
      "outputs": [
        {
          "internalType": "bool",
          "name": "",
          "type": "bool"
        }
      ],
      "stateMutability": "view",
      "type": "function"
    },
    {
      "inputs": [],
      "name": "mockSettlePayout",
      "outputs": [
        {
          "internalType": "uint256",
          "name": "",
          "type": "uint256"
        }
      ],
      "stateMutability": "view",
      "type": "function"
    },
    {
      "inputs": [
        {
          "components": [
            {
              "internalType": "enum MockController.ActionType",
              "name": "actionType",
              "type": "uint8"
            },
            {
              "internalType": "address",
              "name": "owner",
              "type": "address"
            },
            {
              "internalType": "address",
              "name": "secondAddress",
              "type": "address"
            },
            {
              "internalType": "address",
              "name": "asset",
              "type": "address"
            },
            {
              "internalType": "uint256",
              "name": "vaultId",
              "type": "uint256"
            },
            {
              "internalType": "uint256",
              "name": "amount",
              "type": "uint256"
            },
            {
              "internalType": "uint256",
              "name": "index",
              "type": "uint256"
            },
            {
              "internalType": "bytes",
              "name": "data",
              "type": "bytes"
            }
          ],
          "internalType": "struct MockController.ActionArgs[]",
          "name": "_actions",
          "type": "tuple[]"
        }
      ],
      "name": "operate",
      "outputs": [],
      "stateMutability": "nonpayable",
      "type": "function"
    },
    {
      "inputs": [],
      "name": "oracle",
      "outputs": [
        {
          "internalType": "address",
          "name": "",
          "type": "address"
        }
      ],
      "stateMutability": "view",
      "type": "function"
    },
    {
      "inputs": [],
      "name": "pool",
      "outputs": [
        {
          "internalType": "contract IPool",
          "name": "",
          "type": "address"
        }
      ],
      "stateMutability": "view",
      "type": "function"
    },
    {
      "inputs": [
        {
          "internalType": "address",
          "name": "_oracle",
          "type": "address"
        }
      ],
      "name": "setOracle",
      "outputs": [],
      "stateMutability": "nonpayable",
      "type": "function"
    },
    {
      "inputs": [
        {
          "internalType": "address",
          "name": "_pool",
          "type": "address"
        }
      ],
      "name": "setPool",
      "outputs": [],
      "stateMutability": "nonpayable",
      "type": "function"
    },
    {
      "inputs": [
        {
          "internalType": "uint256",
          "name": "_payout",
          "type": "uint256"
        }
      ],
      "name": "setSettlePayout",
      "outputs": [],
      "stateMutability": "nonpayable",
      "type": "function"
    },
    {
      "inputs": [],
      "name": "vaultOpened",
      "outputs": [
        {
          "internalType": "bool",
          "name": "",
          "type": "bool"
        }
      ],
      "stateMutability": "view",
      "type": "function"
    }
  ],
  "bytecode": "0x608060405234801561001057600080fd5b50610b4c806100206000396000f3fe608060405234801561001057600080fd5b506004361061009e5760003560e01c80637dc0d1d0116100665780637dc0d1d01461013357806381d7331c14610151578063b617f0c61461016f578063c942490b1461018b578063e723406c146101a95761009e565b806316f0115b146100a35780631b38fe63146100c15780634437152a146100dd5780635c490193146100f95780637adbf97314610117575b600080fd5b6100ab6101d9565b6040516100b89190610998565b60405180910390f35b6100db60048036038101906100d6919061089d565b6101fd565b005b6100f760048036038101906100f29190610833565b610207565b005b61010161024a565b60405161010e9190610902565b60405180910390f35b610131600480360381019061012c9190610833565b610270565b005b61013b6102b4565b6040516101489190610902565b60405180910390f35b6101596102da565b60405161016691906109b3565b60405180910390f35b6101896004803603810190610184919061085c565b6102e0565b005b610193610609565b6040516101a0919061097d565b60405180910390f35b6101c360048036038101906101be9190610833565b61061c565b6040516101d0919061097d565b60405180910390f35b60008054906101000a900473ffffffffffffffffffffffffffffffffffffffff1681565b8060038190555050565b806000806101000a81548173ffffffffffffffffffffffffffffffffffffffff021916908373ffffffffffffffffffffffffffffffffffffffff16021790555050565b600260009054906101000a900473ffffffffffffffffffffffffffffffffffffffff1681565b80600160006101000a81548173ffffffffffffffffffffffffffffffffffffffff021916908373ffffffffffffffffffffffffffffffffffffffff16021790555050565b600160009054906101000a900473ffffffffffffffffffffffffffffffffffffffff1681565b60035481565b60005b81518160ff161015610605576000828260ff168151811061030057fe5b602002602001015190506000600981111561031757fe5b8160000151600981111561032757fe5b141561034c5760018060146101000a81548160ff0219169083151502179055506105f9565b6005600981111561035957fe5b8160000151600981111561036957fe5b14156104625760008160200151905060008260600151905060008360a00151905060008054906101000a900473ffffffffffffffffffffffffffffffffffffffff1673ffffffffffffffffffffffffffffffffffffffff16633184b9fd8484846040518463ffffffff1660e01b81526004016103e79392919061091d565b600060405180830381600087803b15801561040157600080fd5b505af1158015610415573d6000803e3d6000fd5b5050505081600260006101000a81548173ffffffffffffffffffffffffffffffffffffffff021916908373ffffffffffffffffffffffffffffffffffffffff1602179055505050506105f8565b6001600981111561046f57fe5b8160000151600981111561047f57fe5b14156105155760008160200151905060008260600151905060008360a0015190508173ffffffffffffffffffffffffffffffffffffffff166340c10f1984836040518363ffffffff1660e01b81526004016104db929190610954565b600060405180830381600087803b1580156104f557600080fd5b505af1158015610509573d6000803e3d6000fd5b505050505050506105f7565b6007600981111561052257fe5b8160000151600981111561053257fe5b14156105f65760008160200151905060008054906101000a900473ffffffffffffffffffffffffffffffffffffffff1673ffffffffffffffffffffffffffffffffffffffff1663fa93b2a582600260009054906101000a900473ffffffffffffffffffffffffffffffffffffffff166003546040518463ffffffff1660e01b81526004016105c29392919061091d565b600060405180830381600087803b1580156105dc57600080fd5b505af11580156105f0573d6000803e3d6000fd5b50505050505b5b5b5b506001810190506102e3565b5050565b600160149054906101000a900460ff1681565b600060019050919050565b600061063a610635846109ff565b6109ce565b9050808382526020820190508260005b8581101561067a57813585016106608882610740565b84526020840193506020830192505060018101905061064a565b5050509392505050565b600061069761069284610a2b565b6109ce565b9050828152602081018484840111156106af57600080fd5b6106ba848285610ac7565b509392505050565b6000813590506106d181610ad8565b92915050565b600082601f8301126106e857600080fd5b81356106f8848260208601610627565b91505092915050565b600082601f83011261071257600080fd5b8135610722848260208601610684565b91505092915050565b60008135905061073a81610aef565b92915050565b6000610100828403121561075357600080fd5b61075e6101006109ce565b9050600061076e8482850161072b565b6000830152506020610782848285016106c2565b6020830152506040610796848285016106c2565b60408301525060606107aa848285016106c2565b60608301525060806107be8482850161081e565b60808301525060a06107d28482850161081e565b60a08301525060c06107e68482850161081e565b60c08301525060e082013567ffffffffffffffff81111561080657600080fd5b61081284828501610701565b60e08301525092915050565b60008135905061082d81610aff565b92915050565b60006020828403121561084557600080fd5b6000610853848285016106c2565b91505092915050565b60006020828403121561086e57600080fd5b600082013567ffffffffffffffff81111561088857600080fd5b610894848285016106d7565b91505092915050565b6000602082840312156108af57600080fd5b60006108bd8482850161081e565b91505092915050565b6108cf81610a5b565b82525050565b6108de81610a6d565b82525050565b6108ed81610aa3565b82525050565b6108fc81610a99565b82525050565b600060208201905061091760008301846108c6565b92915050565b600060608201905061093260008301866108c6565b61093f60208301856108c6565b61094c60408301846108f3565b949350505050565b600060408201905061096960008301856108c6565b61097660208301846108f3565b9392505050565b600060208201905061099260008301846108d5565b92915050565b60006020820190506109ad60008301846108e4565b92915050565b60006020820190506109c860008301846108f3565b92915050565b6000604051905081810181811067ffffffffffffffff821117156109f5576109f4610ad6565b5b8060405250919050565b600067ffffffffffffffff821115610a1a57610a19610ad6565b5b602082029050602081019050919050565b600067ffffffffffffffff821115610a4657610a45610ad6565b5b601f19601f8301169050602081019050919050565b6000610a6682610a79565b9050919050565b60008115159050919050565b600073ffffffffffffffffffffffffffffffffffffffff82169050919050565b6000819050919050565b6000610aae82610ab5565b9050919050565b6000610ac082610a79565b9050919050565b82818337600083830152505050565bfe5b610ae181610a5b565b8114610aec57600080fd5b50565b600a8110610afc57600080fd5b50565b610b0881610a99565b8114610b1357600080fd5b5056fea2646970667358221220e83c33851913e955ee752fdc652e395dc302450a163183343185dab4f10cbc0764736f6c63430007060033",
  "linkReferences": {},
  "deployedLinkReferences": {}
}